{
  "_format": "hh-sol-artifact-1",
  "contractName": "DynamicSvgNft",
  "sourceName": "contracts/DynamicSvgNft.sol",
  "abi": [
    {
      "inputs": [
        {
          "internalType": "address",
          "name": "priceFeedAddress",
          "type": "address"
        },
        {
          "internalType": "string",
          "name": "lowSvg",
          "type": "string"
        },
        {
          "internalType": "string",
          "name": "highSvg",
          "type": "string"
        }
      ],
      "stateMutability": "nonpayable",
      "type": "constructor"
    },
    {
      "anonymous": false,
      "inputs": [
        {
          "indexed": true,
          "internalType": "address",
          "name": "owner",
          "type": "address"
        },
        {
          "indexed": true,
          "internalType": "address",
          "name": "approved",
          "type": "address"
        },
        {
          "indexed": true,
          "internalType": "uint256",
          "name": "tokenId",
          "type": "uint256"
        }
      ],
      "name": "Approval",
      "type": "event"
    },
    {
      "anonymous": false,
      "inputs": [
        {
          "indexed": true,
          "internalType": "address",
          "name": "owner",
          "type": "address"
        },
        {
          "indexed": true,
          "internalType": "address",
          "name": "operator",
          "type": "address"
        },
        {
          "indexed": false,
          "internalType": "bool",
          "name": "approved",
          "type": "bool"
        }
      ],
      "name": "ApprovalForAll",
      "type": "event"
    },
    {
      "anonymous": false,
      "inputs": [
        {
          "indexed": true,
          "internalType": "uint256",
          "name": "tokenId",
          "type": "uint256"
        },
        {
          "indexed": true,
          "internalType": "int256",
          "name": "highValue",
          "type": "int256"
        }
      ],
      "name": "CreatedNft",
      "type": "event"
    },
    {
      "anonymous": false,
      "inputs": [
        {
          "indexed": true,
          "internalType": "address",
          "name": "from",
          "type": "address"
        },
        {
          "indexed": true,
          "internalType": "address",
          "name": "to",
          "type": "address"
        },
        {
          "indexed": true,
          "internalType": "uint256",
          "name": "tokenId",
          "type": "uint256"
        }
      ],
      "name": "Transfer",
      "type": "event"
    },
    {
      "inputs": [
        {
          "internalType": "address",
          "name": "to",
          "type": "address"
        },
        {
          "internalType": "uint256",
          "name": "tokenId",
          "type": "uint256"
        }
      ],
      "name": "approve",
      "outputs": [],
      "stateMutability": "nonpayable",
      "type": "function"
    },
    {
      "inputs": [
        {
          "internalType": "address",
          "name": "owner",
          "type": "address"
        }
      ],
      "name": "balanceOf",
      "outputs": [
        {
          "internalType": "uint256",
          "name": "",
          "type": "uint256"
        }
      ],
      "stateMutability": "view",
      "type": "function"
    },
    {
      "inputs": [
        {
          "internalType": "uint256",
          "name": "tokenId",
          "type": "uint256"
        }
      ],
      "name": "getApproved",
      "outputs": [
        {
          "internalType": "address",
          "name": "",
          "type": "address"
        }
      ],
      "stateMutability": "view",
      "type": "function"
    },
    {
      "inputs": [
        {
          "internalType": "address",
          "name": "owner",
          "type": "address"
        },
        {
          "internalType": "address",
          "name": "operator",
          "type": "address"
        }
      ],
      "name": "isApprovedForAll",
      "outputs": [
        {
          "internalType": "bool",
          "name": "",
          "type": "bool"
        }
      ],
      "stateMutability": "view",
      "type": "function"
    },
    {
      "inputs": [
        {
          "internalType": "int256",
          "name": "highValue",
          "type": "int256"
        }
      ],
      "name": "mintNft",
      "outputs": [],
      "stateMutability": "nonpayable",
      "type": "function"
    },
    {
      "inputs": [],
      "name": "name",
      "outputs": [
        {
          "internalType": "string",
          "name": "",
          "type": "string"
        }
      ],
      "stateMutability": "view",
      "type": "function"
    },
    {
      "inputs": [
        {
          "internalType": "uint256",
          "name": "tokenId",
          "type": "uint256"
        }
      ],
      "name": "ownerOf",
      "outputs": [
        {
          "internalType": "address",
          "name": "",
          "type": "address"
        }
      ],
      "stateMutability": "view",
      "type": "function"
    },
    {
      "inputs": [
        {
          "internalType": "uint256",
          "name": "",
          "type": "uint256"
        }
      ],
      "name": "s_tokenIdToHighValue",
      "outputs": [
        {
          "internalType": "int256",
          "name": "",
          "type": "int256"
        }
      ],
      "stateMutability": "view",
      "type": "function"
    },
    {
      "inputs": [
        {
          "internalType": "address",
          "name": "from",
          "type": "address"
        },
        {
          "internalType": "address",
          "name": "to",
          "type": "address"
        },
        {
          "internalType": "uint256",
          "name": "tokenId",
          "type": "uint256"
        }
      ],
      "name": "safeTransferFrom",
      "outputs": [],
      "stateMutability": "nonpayable",
      "type": "function"
    },
    {
      "inputs": [
        {
          "internalType": "address",
          "name": "from",
          "type": "address"
        },
        {
          "internalType": "address",
          "name": "to",
          "type": "address"
        },
        {
          "internalType": "uint256",
          "name": "tokenId",
          "type": "uint256"
        },
        {
          "internalType": "bytes",
          "name": "data",
          "type": "bytes"
        }
      ],
      "name": "safeTransferFrom",
      "outputs": [],
      "stateMutability": "nonpayable",
      "type": "function"
    },
    {
      "inputs": [
        {
          "internalType": "address",
          "name": "operator",
          "type": "address"
        },
        {
          "internalType": "bool",
          "name": "approved",
          "type": "bool"
        }
      ],
      "name": "setApprovalForAll",
      "outputs": [],
      "stateMutability": "nonpayable",
      "type": "function"
    },
    {
      "inputs": [
        {
          "internalType": "bytes4",
          "name": "interfaceId",
          "type": "bytes4"
        }
      ],
      "name": "supportsInterface",
      "outputs": [
        {
          "internalType": "bool",
          "name": "",
          "type": "bool"
        }
      ],
      "stateMutability": "view",
      "type": "function"
    },
    {
      "inputs": [
        {
          "internalType": "string",
          "name": "svg",
          "type": "string"
        }
      ],
      "name": "svgToImageURI",
      "outputs": [
        {
          "internalType": "string",
          "name": "",
          "type": "string"
        }
      ],
      "stateMutability": "pure",
      "type": "function"
    },
    {
      "inputs": [],
      "name": "symbol",
      "outputs": [
        {
          "internalType": "string",
          "name": "",
          "type": "string"
        }
      ],
      "stateMutability": "view",
      "type": "function"
    },
    {
      "inputs": [
        {
          "internalType": "uint256",
          "name": "tokenId",
          "type": "uint256"
        }
      ],
      "name": "tokenURI",
      "outputs": [
        {
          "internalType": "string",
          "name": "",
          "type": "string"
        }
      ],
      "stateMutability": "view",
      "type": "function"
    },
    {
      "inputs": [
        {
          "internalType": "address",
          "name": "from",
          "type": "address"
        },
        {
          "internalType": "address",
          "name": "to",
          "type": "address"
        },
        {
          "internalType": "uint256",
          "name": "tokenId",
          "type": "uint256"
        }
      ],
      "name": "transferFrom",
      "outputs": [],
      "stateMutability": "nonpayable",
      "type": "function"
    }
  ],
  "bytecode": "0x60a06040523480156200001157600080fd5b5060405162003a8238038062003a82833981810160405281019062000037919062000575565b6040518060400160405280600d81526020017f44796e616d69635376674e6674000000000000000000000000000000000000008152506040518060400160405280600381526020017f44534e00000000000000000000000000000000000000000000000000000000008152508160009081620000b491906200085a565b508060019081620000c691906200085a565b50505060006006819055508273ffffffffffffffffffffffffffffffffffffffff1660808173ffffffffffffffffffffffffffffffffffffffff168152505062000116826200015260201b60201c565b600790816200012691906200085a565b5062000138816200015260201b60201c565b600890816200014891906200085a565b5050505062000ae0565b606060006200018d836040516020016200016d919062000983565b604051602081830303815290604052620001f060201b62000d281760201c565b90506040518060400160405280601881526020017f646174613a696d672f7376672b786d6c3b6261736536342c000000000000000081525081604051602001620001d99291906200099c565b604051602081830303815290604052915050919050565b60606000825103620002145760405180602001604052806000815250905062000378565b600060405180606001604052806040815260200162003a426040913990506000600360028551620002469190620009f3565b62000252919062000a5d565b600462000260919062000a95565b90506000602082620002739190620009f3565b67ffffffffffffffff8111156200028f576200028e62000411565b5b6040519080825280601f01601f191660200182016040528015620002c25781602001600182028036833780820191505090505b509050818152600183018586518101602084015b8183101562000333576003830192508251603f8160121c168501518253600182019150603f81600c1c168501518253600182019150603f8160061c168501518253600182019150603f8116850151825360018201915050620002d6565b60038951066001811462000350576002811462000361576200036c565b613d3d60f01b60028303526200036c565b603d60f81b60018303525b50505050508093505050505b919050565b6000604051905090565b600080fd5b600080fd5b600073ffffffffffffffffffffffffffffffffffffffff82169050919050565b6000620003be8262000391565b9050919050565b620003d081620003b1565b8114620003dc57600080fd5b50565b600081519050620003f081620003c5565b92915050565b600080fd5b600080fd5b6000601f19601f8301169050919050565b7f4e487b7100000000000000000000000000000000000000000000000000000000600052604160045260246000fd5b6200044b8262000400565b810181811067ffffffffffffffff821117156200046d576200046c62000411565b5b80604052505050565b6000620004826200037d565b905062000490828262000440565b919050565b600067ffffffffffffffff821115620004b357620004b262000411565b5b620004be8262000400565b9050602081019050919050565b60005b83811015620004eb578082015181840152602081019050620004ce565b60008484015250505050565b60006200050e620005088462000495565b62000476565b9050828152602081018484840111156200052d576200052c620003fb565b5b6200053a848285620004cb565b509392505050565b600082601f8301126200055a5762000559620003f6565b5b81516200056c848260208601620004f7565b91505092915050565b60008060006060848603121562000591576200059062000387565b5b6000620005a186828701620003df565b935050602084015167ffffffffffffffff811115620005c557620005c46200038c565b5b620005d38682870162000542565b925050604084015167ffffffffffffffff811115620005f757620005f66200038c565b5b620006058682870162000542565b9150509250925092565b600081519050919050565b7f4e487b7100000000000000000000000000000000000000000000000000000000600052602260045260246000fd5b600060028204905060018216806200066257607f821691505b6020821081036200067857620006776200061a565b5b50919050565b60008190508160005260206000209050919050565b60006020601f8301049050919050565b600082821b905092915050565b600060088302620006e27fffffffffffffffffffffffffffffffffffffffffffffffffffffffffffffffff82620006a3565b620006ee8683620006a3565b95508019841693508086168417925050509392505050565b6000819050919050565b6000819050919050565b60006200073b620007356200072f8462000706565b62000710565b62000706565b9050919050565b6000819050919050565b62000757836200071a565b6200076f620007668262000742565b848454620006b0565b825550505050565b600090565b6200078662000777565b620007938184846200074c565b505050565b5b81811015620007bb57620007af6000826200077c565b60018101905062000799565b5050565b601f8211156200080a57620007d4816200067e565b620007df8462000693565b81016020851015620007ef578190505b62000807620007fe8562000693565b83018262000798565b50505b505050565b600082821c905092915050565b60006200082f600019846008026200080f565b1980831691505092915050565b60006200084a83836200081c565b9150826002028217905092915050565b62000865826200060f565b67ffffffffffffffff81111562000881576200088062000411565b5b6200088d825462000649565b6200089a828285620007bf565b600060209050601f831160018114620008d25760008415620008bd578287015190505b620008c985826200083c565b86555062000939565b601f198416620008e2866200067e565b60005b828110156200090c57848901518255600182019150602085019450602081019050620008e5565b868310156200092c578489015162000928601f8916826200081c565b8355505b6001600288020188555050505b505050505050565b600081905092915050565b600062000959826200060f565b62000965818562000941565b935062000977818560208601620004cb565b80840191505092915050565b60006200099182846200094c565b915081905092915050565b6000620009aa82856200094c565b9150620009b882846200094c565b91508190509392505050565b7f4e487b7100000000000000000000000000000000000000000000000000000000600052601160045260246000fd5b600062000a008262000706565b915062000a0d8362000706565b925082820190508082111562000a285762000a27620009c4565b5b92915050565b7f4e487b7100000000000000000000000000000000000000000000000000000000600052601260045260246000fd5b600062000a6a8262000706565b915062000a778362000706565b92508262000a8a5762000a8962000a2e565b5b828204905092915050565b600062000aa28262000706565b915062000aaf8362000706565b925082820262000abf8162000706565b9150828204841483151762000ad95762000ad8620009c4565b5b5092915050565b608051612f4662000afc6000396000610adf0152612f466000f3fe608060405234801561001057600080fd5b50600436106101005760003560e01c80636352211e11610097578063b88d4fde11610066578063b88d4fde146102bd578063c87b56dd146102d9578063e425aded14610309578063e985e9c51461033957610100565b80636352211e1461022357806370a082311461025357806395d89b4114610283578063a22cb465146102a157610100565b80631e930812116100d35780631e9308121461019f57806323b872dd146101bb57806330d871c6146101d757806342842e0e1461020757610100565b806301ffc9a71461010557806306fdde0314610135578063081812fc14610153578063095ea7b314610183575b600080fd5b61011f600480360381019061011a9190611bff565b610369565b60405161012c9190611c47565b60405180910390f35b61013d61044b565b60405161014a9190611cf2565b60405180910390f35b61016d60048036038101906101689190611d4a565b6104dd565b60405161017a9190611db8565b60405180910390f35b61019d60048036038101906101989190611dff565b610523565b005b6101b960048036038101906101b49190611e75565b61063a565b005b6101d560048036038101906101d09190611ea2565b6106ad565b005b6101f160048036038101906101ec919061202a565b61070d565b6040516101fe9190611cf2565b60405180910390f35b610221600480360381019061021c9190611ea2565b61079a565b005b61023d60048036038101906102389190611d4a565b6107ba565b60405161024a9190611db8565b60405180910390f35b61026d60048036038101906102689190612073565b610840565b60405161027a91906120af565b60405180910390f35b61028b6108f7565b6040516102989190611cf2565b60405180910390f35b6102bb60048036038101906102b691906120f6565b610989565b005b6102d760048036038101906102d291906121d7565b61099f565b005b6102f360048036038101906102ee9190611d4a565b610a01565b6040516103009190611cf2565b60405180910390f35b610323600480360381019061031e9190611d4a565b610c7c565b6040516103309190612269565b60405180910390f35b610353600480360381019061034e9190612284565b610c94565b6040516103609190611c47565b60405180910390f35b60007f80ac58cd000000000000000000000000000000000000000000000000000000007bffffffffffffffffffffffffffffffffffffffffffffffffffffffff1916827bffffffffffffffffffffffffffffffffffffffffffffffffffffffff1916148061043457507f5b5e139f000000000000000000000000000000000000000000000000000000007bffffffffffffffffffffffffffffffffffffffffffffffffffffffff1916827bffffffffffffffffffffffffffffffffffffffffffffffffffffffff1916145b80610444575061044382610ea0565b5b9050919050565b60606000805461045a906122f3565b80601f0160208091040260200160405190810160405280929190818152602001828054610486906122f3565b80156104d35780601f106104a8576101008083540402835291602001916104d3565b820191906000526020600020905b8154815290600101906020018083116104b657829003601f168201915b5050505050905090565b60006104e882610f0a565b6004600083815260200190815260200160002060009054906101000a900473ffffffffffffffffffffffffffffffffffffffff169050919050565b600061052e826107ba565b90508073ffffffffffffffffffffffffffffffffffffffff168373ffffffffffffffffffffffffffffffffffffffff160361059e576040517f08c379a000000000000000000000000000000000000000000000000000000000815260040161059590612396565b60405180910390fd5b8073ffffffffffffffffffffffffffffffffffffffff166105bd610f55565b73ffffffffffffffffffffffffffffffffffffffff1614806105ec57506105eb816105e6610f55565b610c94565b5b61062b576040517f08c379a000000000000000000000000000000000000000000000000000000000815260040161062290612428565b60405180910390fd5b6106358383610f5d565b505050565b80600960006006548152602001908152602001600020819055506001600660008282546106679190612477565b9250508190555061067a33600654611016565b806006547f51e67edca96a8e375a3b7ab6640aee9013f7fb40776849f5cc0b0fd62125156360405160405180910390a350565b6106be6106b8610f55565b82611034565b6106fd576040517f08c379a00000000000000000000000000000000000000000000000000000000081526004016106f49061251d565b60405180910390fd5b6107088383836110c9565b505050565b60606000610739836040516020016107259190612579565b604051602081830303815290604052610d28565b90506040518060400160405280601881526020017f646174613a696d672f7376672b786d6c3b6261736536342c000000000000000081525081604051602001610783929190612590565b604051602081830303815290604052915050919050565b6107b58383836040518060200160405280600081525061099f565b505050565b6000806107c6836113c2565b9050600073ffffffffffffffffffffffffffffffffffffffff168173ffffffffffffffffffffffffffffffffffffffff1603610837576040517f08c379a000000000000000000000000000000000000000000000000000000000815260040161082e90612600565b60405180910390fd5b80915050919050565b60008073ffffffffffffffffffffffffffffffffffffffff168273ffffffffffffffffffffffffffffffffffffffff16036108b0576040517f08c379a00000000000000000000000000000000000000000000000000000000081526004016108a790612692565b60405180910390fd5b600360008373ffffffffffffffffffffffffffffffffffffffff1673ffffffffffffffffffffffffffffffffffffffff168152602001908152602001600020549050919050565b606060018054610906906122f3565b80601f0160208091040260200160405190810160405280929190818152602001828054610932906122f3565b801561097f5780601f106109545761010080835404028352916020019161097f565b820191906000526020600020905b81548152906001019060200180831161096257829003601f168201915b5050505050905090565b61099b610994610f55565b83836113ff565b5050565b6109b06109aa610f55565b83611034565b6109ef576040517f08c379a00000000000000000000000000000000000000000000000000000000081526004016109e69061251d565b60405180910390fd5b6109fb8484848461156b565b50505050565b6060610a0c826115c7565b15610a4c576040517f08c379a0000000000000000000000000000000000000000000000000000000008152600401610a43906126fe565b60405180910390fd5b600060078054610a5b906122f3565b80601f0160208091040260200160405190810160405280929190818152602001828054610a87906122f3565b8015610ad45780601f10610aa957610100808354040283529160200191610ad4565b820191906000526020600020905b815481529060010190602001808311610ab757829003601f168201915b5050505050905060007f000000000000000000000000000000000000000000000000000000000000000073ffffffffffffffffffffffffffffffffffffffff1663feaf968c6040518163ffffffff1660e01b815260040160a060405180830381865afa158015610b48573d6000803e3d6000fd5b505050506040513d601f19601f82011682018060405250810190610b6c919061278a565b50505091505060096000858152602001908152602001600020548112610c1a5760088054610b99906122f3565b80601f0160208091040260200160405190810160405280929190818152602001828054610bc5906122f3565b8015610c125780601f10610be757610100808354040283529160200191610c12565b820191906000526020600020905b815481529060010190602001808311610bf557829003601f168201915b505050505091505b610c22611608565b610c53610c2d61044b565b84604051602001610c3f9291906129cd565b604051602081830303815290604052610d28565b604051602001610c64929190612590565b60405160208183030381529060405292505050919050565b60096020528060005260406000206000915090505481565b6000600560008473ffffffffffffffffffffffffffffffffffffffff1673ffffffffffffffffffffffffffffffffffffffff16815260200190815260200160002060008373ffffffffffffffffffffffffffffffffffffffff1673ffffffffffffffffffffffffffffffffffffffff16815260200190815260200160002060009054906101000a900460ff16905092915050565b60606000825103610d4a57604051806020016040528060008152509050610e9b565b6000604051806060016040528060408152602001612ed16040913990506000600360028551610d799190612477565b610d839190612a4c565b6004610d8f9190612a7d565b90506000602082610da09190612477565b67ffffffffffffffff811115610db957610db8611eff565b5b6040519080825280601f01601f191660200182016040528015610deb5781602001600182028036833780820191505090505b509050818152600183018586518101602084015b81831015610e5a576003830192508251603f8160121c168501518253600182019150603f81600c1c168501518253600182019150603f8160061c168501518253600182019150603f8116850151825360018201915050610dff565b600389510660018114610e745760028114610e8457610e8f565b613d3d60f01b6002830352610e8f565b603d60f81b60018303525b50505050508093505050505b919050565b60007f01ffc9a7000000000000000000000000000000000000000000000000000000007bffffffffffffffffffffffffffffffffffffffffffffffffffffffff1916827bffffffffffffffffffffffffffffffffffffffffffffffffffffffff1916149050919050565b610f13816115c7565b610f52576040517f08c379a0000000000000000000000000000000000000000000000000000000008152600401610f4990612600565b60405180910390fd5b50565b600033905090565b816004600083815260200190815260200160002060006101000a81548173ffffffffffffffffffffffffffffffffffffffff021916908373ffffffffffffffffffffffffffffffffffffffff160217905550808273ffffffffffffffffffffffffffffffffffffffff16610fd0836107ba565b73ffffffffffffffffffffffffffffffffffffffff167f8c5be1e5ebec7d5bd14f71427d1e84f3dd0314c0f7b2291e5b200ac8c7c3b92560405160405180910390a45050565b611030828260405180602001604052806000815250611645565b5050565b600080611040836107ba565b90508073ffffffffffffffffffffffffffffffffffffffff168473ffffffffffffffffffffffffffffffffffffffff16148061108257506110818185610c94565b5b806110c057508373ffffffffffffffffffffffffffffffffffffffff166110a8846104dd565b73ffffffffffffffffffffffffffffffffffffffff16145b91505092915050565b8273ffffffffffffffffffffffffffffffffffffffff166110e9826107ba565b73ffffffffffffffffffffffffffffffffffffffff161461113f576040517f08c379a000000000000000000000000000000000000000000000000000000000815260040161113690612b31565b60405180910390fd5b600073ffffffffffffffffffffffffffffffffffffffff168273ffffffffffffffffffffffffffffffffffffffff16036111ae576040517f08c379a00000000000000000000000000000000000000000000000000000000081526004016111a590612bc3565b60405180910390fd5b6111bb83838360016116a0565b8273ffffffffffffffffffffffffffffffffffffffff166111db826107ba565b73ffffffffffffffffffffffffffffffffffffffff1614611231576040517f08c379a000000000000000000000000000000000000000000000000000000000815260040161122890612b31565b60405180910390fd5b6004600082815260200190815260200160002060006101000a81549073ffffffffffffffffffffffffffffffffffffffff02191690556001600360008573ffffffffffffffffffffffffffffffffffffffff1673ffffffffffffffffffffffffffffffffffffffff168152602001908152602001600020600082825403925050819055506001600360008473ffffffffffffffffffffffffffffffffffffffff1673ffffffffffffffffffffffffffffffffffffffff16815260200190815260200160002060008282540192505081905550816002600083815260200190815260200160002060006101000a81548173ffffffffffffffffffffffffffffffffffffffff021916908373ffffffffffffffffffffffffffffffffffffffff160217905550808273ffffffffffffffffffffffffffffffffffffffff168473ffffffffffffffffffffffffffffffffffffffff167fddf252ad1be2c89b69c2b068fc378daa952ba7f163c4a11628f55a4df523b3ef60405160405180910390a46113bd83838360016117c6565b505050565b60006002600083815260200190815260200160002060009054906101000a900473ffffffffffffffffffffffffffffffffffffffff169050919050565b8173ffffffffffffffffffffffffffffffffffffffff168373ffffffffffffffffffffffffffffffffffffffff160361146d576040517f08c379a000000000000000000000000000000000000000000000000000000000815260040161146490612c2f565b60405180910390fd5b80600560008573ffffffffffffffffffffffffffffffffffffffff1673ffffffffffffffffffffffffffffffffffffffff16815260200190815260200160002060008473ffffffffffffffffffffffffffffffffffffffff1673ffffffffffffffffffffffffffffffffffffffff16815260200190815260200160002060006101000a81548160ff0219169083151502179055508173ffffffffffffffffffffffffffffffffffffffff168373ffffffffffffffffffffffffffffffffffffffff167f17307eab39ab6107e8899845ad3d59bd9653f200f220920489ca2b5937696c318360405161155e9190611c47565b60405180910390a3505050565b6115768484846110c9565b611582848484846117cc565b6115c1576040517f08c379a00000000000000000000000000000000000000000000000000000000081526004016115b890612cc1565b60405180910390fd5b50505050565b60008073ffffffffffffffffffffffffffffffffffffffff166115e9836113c2565b73ffffffffffffffffffffffffffffffffffffffff1614159050919050565b60606040518060400160405280601d81526020017f646174613a6170706c69636174696f6e2f6a736f6e3b6261736536342c000000815250905090565b61164f8383611953565b61165c60008484846117cc565b61169b576040517f08c379a000000000000000000000000000000000000000000000000000000000815260040161169290612cc1565b60405180910390fd5b505050565b60018111156117c057600073ffffffffffffffffffffffffffffffffffffffff168473ffffffffffffffffffffffffffffffffffffffff16146117345780600360008673ffffffffffffffffffffffffffffffffffffffff1673ffffffffffffffffffffffffffffffffffffffff168152602001908152602001600020600082825461172c9190612ce1565b925050819055505b600073ffffffffffffffffffffffffffffffffffffffff168373ffffffffffffffffffffffffffffffffffffffff16146117bf5780600360008573ffffffffffffffffffffffffffffffffffffffff1673ffffffffffffffffffffffffffffffffffffffff16815260200190815260200160002060008282546117b79190612477565b925050819055505b5b50505050565b50505050565b60006117ed8473ffffffffffffffffffffffffffffffffffffffff16611b70565b15611946578373ffffffffffffffffffffffffffffffffffffffff1663150b7a02611816610f55565b8786866040518563ffffffff1660e01b81526004016118389493929190612d6a565b6020604051808303816000875af192505050801561187457506040513d601f19601f820116820180604052508101906118719190612dcb565b60015b6118f6573d80600081146118a4576040519150601f19603f3d011682016040523d82523d6000602084013e6118a9565b606091505b5060008151036118ee576040517f08c379a00000000000000000000000000000000000000000000000000000000081526004016118e590612cc1565b60405180910390fd5b805181602001fd5b63150b7a0260e01b7bffffffffffffffffffffffffffffffffffffffffffffffffffffffff1916817bffffffffffffffffffffffffffffffffffffffffffffffffffffffff19161491505061194b565b600190505b949350505050565b600073ffffffffffffffffffffffffffffffffffffffff168273ffffffffffffffffffffffffffffffffffffffff16036119c2576040517f08c379a00000000000000000000000000000000000000000000000000000000081526004016119b990612e44565b60405180910390fd5b6119cb816115c7565b15611a0b576040517f08c379a0000000000000000000000000000000000000000000000000000000008152600401611a0290612eb0565b60405180910390fd5b611a196000838360016116a0565b611a22816115c7565b15611a62576040517f08c379a0000000000000000000000000000000000000000000000000000000008152600401611a5990612eb0565b60405180910390fd5b6001600360008473ffffffffffffffffffffffffffffffffffffffff1673ffffffffffffffffffffffffffffffffffffffff16815260200190815260200160002060008282540192505081905550816002600083815260200190815260200160002060006101000a81548173ffffffffffffffffffffffffffffffffffffffff021916908373ffffffffffffffffffffffffffffffffffffffff160217905550808273ffffffffffffffffffffffffffffffffffffffff16600073ffffffffffffffffffffffffffffffffffffffff167fddf252ad1be2c89b69c2b068fc378daa952ba7f163c4a11628f55a4df523b3ef60405160405180910390a4611b6c6000838360016117c6565b5050565b6000808273ffffffffffffffffffffffffffffffffffffffff163b119050919050565b6000604051905090565b600080fd5b600080fd5b60007fffffffff0000000000000000000000000000000000000000000000000000000082169050919050565b611bdc81611ba7565b8114611be757600080fd5b50565b600081359050611bf981611bd3565b92915050565b600060208284031215611c1557611c14611b9d565b5b6000611c2384828501611bea565b91505092915050565b60008115159050919050565b611c4181611c2c565b82525050565b6000602082019050611c5c6000830184611c38565b92915050565b600081519050919050565b600082825260208201905092915050565b60005b83811015611c9c578082015181840152602081019050611c81565b60008484015250505050565b6000601f19601f8301169050919050565b6000611cc482611c62565b611cce8185611c6d565b9350611cde818560208601611c7e565b611ce781611ca8565b840191505092915050565b60006020820190508181036000830152611d0c8184611cb9565b905092915050565b6000819050919050565b611d2781611d14565b8114611d3257600080fd5b50565b600081359050611d4481611d1e565b92915050565b600060208284031215611d6057611d5f611b9d565b5b6000611d6e84828501611d35565b91505092915050565b600073ffffffffffffffffffffffffffffffffffffffff82169050919050565b6000611da282611d77565b9050919050565b611db281611d97565b82525050565b6000602082019050611dcd6000830184611da9565b92915050565b611ddc81611d97565b8114611de757600080fd5b50565b600081359050611df981611dd3565b92915050565b60008060408385031215611e1657611e15611b9d565b5b6000611e2485828601611dea565b9250506020611e3585828601611d35565b9150509250929050565b6000819050919050565b611e5281611e3f565b8114611e5d57600080fd5b50565b600081359050611e6f81611e49565b92915050565b600060208284031215611e8b57611e8a611b9d565b5b6000611e9984828501611e60565b91505092915050565b600080600060608486031215611ebb57611eba611b9d565b5b6000611ec986828701611dea565b9350506020611eda86828701611dea565b9250506040611eeb86828701611d35565b9150509250925092565b600080fd5b600080fd5b7f4e487b7100000000000000000000000000000000000000000000000000000000600052604160045260246000fd5b611f3782611ca8565b810181811067ffffffffffffffff82111715611f5657611f55611eff565b5b80604052505050565b6000611f69611b93565b9050611f758282611f2e565b919050565b600067ffffffffffffffff821115611f9557611f94611eff565b5b611f9e82611ca8565b9050602081019050919050565b82818337600083830152505050565b6000611fcd611fc884611f7a565b611f5f565b905082815260208101848484011115611fe957611fe8611efa565b5b611ff4848285611fab565b509392505050565b600082601f83011261201157612010611ef5565b5b8135612021848260208601611fba565b91505092915050565b6000602082840312156120405761203f611b9d565b5b600082013567ffffffffffffffff81111561205e5761205d611ba2565b5b61206a84828501611ffc565b91505092915050565b60006020828403121561208957612088611b9d565b5b600061209784828501611dea565b91505092915050565b6120a981611d14565b82525050565b60006020820190506120c460008301846120a0565b92915050565b6120d381611c2c565b81146120de57600080fd5b50565b6000813590506120f0816120ca565b92915050565b6000806040838503121561210d5761210c611b9d565b5b600061211b85828601611dea565b925050602061212c858286016120e1565b9150509250929050565b600067ffffffffffffffff82111561215157612150611eff565b5b61215a82611ca8565b9050602081019050919050565b600061217a61217584612136565b611f5f565b90508281526020810184848401111561219657612195611efa565b5b6121a1848285611fab565b509392505050565b600082601f8301126121be576121bd611ef5565b5b81356121ce848260208601612167565b91505092915050565b600080600080608085870312156121f1576121f0611b9d565b5b60006121ff87828801611dea565b945050602061221087828801611dea565b935050604061222187828801611d35565b925050606085013567ffffffffffffffff81111561224257612241611ba2565b5b61224e878288016121a9565b91505092959194509250565b61226381611e3f565b82525050565b600060208201905061227e600083018461225a565b92915050565b6000806040838503121561229b5761229a611b9d565b5b60006122a985828601611dea565b92505060206122ba85828601611dea565b9150509250929050565b7f4e487b7100000000000000000000000000000000000000000000000000000000600052602260045260246000fd5b6000600282049050600182168061230b57607f821691505b60208210810361231e5761231d6122c4565b5b50919050565b7f4552433732313a20617070726f76616c20746f2063757272656e74206f776e6560008201527f7200000000000000000000000000000000000000000000000000000000000000602082015250565b6000612380602183611c6d565b915061238b82612324565b604082019050919050565b600060208201905081810360008301526123af81612373565b9050919050565b7f4552433732313a20617070726f76652063616c6c6572206973206e6f7420746f60008201527f6b656e206f776e6572206f7220617070726f76656420666f7220616c6c000000602082015250565b6000612412603d83611c6d565b915061241d826123b6565b604082019050919050565b6000602082019050818103600083015261244181612405565b9050919050565b7f4e487b7100000000000000000000000000000000000000000000000000000000600052601160045260246000fd5b600061248282611d14565b915061248d83611d14565b92508282019050808211156124a5576124a4612448565b5b92915050565b7f4552433732313a2063616c6c6572206973206e6f7420746f6b656e206f776e6560008201527f72206f7220617070726f76656400000000000000000000000000000000000000602082015250565b6000612507602d83611c6d565b9150612512826124ab565b604082019050919050565b60006020820190508181036000830152612536816124fa565b9050919050565b600081905092915050565b600061255382611c62565b61255d818561253d565b935061256d818560208601611c7e565b80840191505092915050565b60006125858284612548565b915081905092915050565b600061259c8285612548565b91506125a88284612548565b91508190509392505050565b7f4552433732313a20696e76616c696420746f6b656e2049440000000000000000600082015250565b60006125ea601883611c6d565b91506125f5826125b4565b602082019050919050565b60006020820190508181036000830152612619816125dd565b9050919050565b7f4552433732313a2061646472657373207a65726f206973206e6f74206120766160008201527f6c6964206f776e65720000000000000000000000000000000000000000000000602082015250565b600061267c602983611c6d565b915061268782612620565b604082019050919050565b600060208201905081810360008301526126ab8161266f565b9050919050565b7f55524920517565727920666f72206e6f6e2d6578697374616e7420746f6b656e600082015250565b60006126e8602083611c6d565b91506126f3826126b2565b602082019050919050565b60006020820190508181036000830152612717816126db565b9050919050565b600069ffffffffffffffffffff82169050919050565b61273d8161271e565b811461274857600080fd5b50565b60008151905061275a81612734565b92915050565b60008151905061276f81611e49565b92915050565b60008151905061278481611d1e565b92915050565b600080600080600060a086880312156127a6576127a5611b9d565b5b60006127b48882890161274b565b95505060206127c588828901612760565b94505060406127d688828901612775565b93505060606127e788828901612775565b92505060806127f88882890161274b565b9150509295509295909350565b7f7b226e616d65223a220000000000000000000000000000000000000000000000600082015250565b600061283b60098361253d565b915061284682612805565b600982019050919050565b7f222c20226465736372697074696f6e223a22416e204e4654207468617420636860008201527f616e676573206261736564206f6e2074686520436861696e6c696e6b2046656560208201527f64222c2000000000000000000000000000000000000000000000000000000000604082015250565b60006128d360448361253d565b91506128de82612851565b604482019050919050565b7f2261747472696275746573223a205b7b2274726169745f74797065223a20226360008201527f6f6f6c6e657373222c202276616c7565223a203130307d5d2c2022696d61676560208201527f223a220000000000000000000000000000000000000000000000000000000000604082015250565b600061296b60438361253d565b9150612976826128e9565b604382019050919050565b7f227d000000000000000000000000000000000000000000000000000000000000600082015250565b60006129b760028361253d565b91506129c282612981565b600282019050919050565b60006129d88261282e565b91506129e48285612548565b91506129ef826128c6565b91506129fa8261295e565b9150612a068284612548565b9150612a11826129aa565b91508190509392505050565b7f4e487b7100000000000000000000000000000000000000000000000000000000600052601260045260246000fd5b6000612a5782611d14565b9150612a6283611d14565b925082612a7257612a71612a1d565b5b828204905092915050565b6000612a8882611d14565b9150612a9383611d14565b9250828202612aa181611d14565b91508282048414831517612ab857612ab7612448565b5b5092915050565b7f4552433732313a207472616e736665722066726f6d20696e636f72726563742060008201527f6f776e6572000000000000000000000000000000000000000000000000000000602082015250565b6000612b1b602583611c6d565b9150612b2682612abf565b604082019050919050565b60006020820190508181036000830152612b4a81612b0e565b9050919050565b7f4552433732313a207472616e7366657220746f20746865207a65726f2061646460008201527f7265737300000000000000000000000000000000000000000000000000000000602082015250565b6000612bad602483611c6d565b9150612bb882612b51565b604082019050919050565b60006020820190508181036000830152612bdc81612ba0565b9050919050565b7f4552433732313a20617070726f766520746f2063616c6c657200000000000000600082015250565b6000612c19601983611c6d565b9150612c2482612be3565b602082019050919050565b60006020820190508181036000830152612c4881612c0c565b9050919050565b7f4552433732313a207472616e7366657220746f206e6f6e20455243373231526560008201527f63656976657220696d706c656d656e7465720000000000000000000000000000602082015250565b6000612cab603283611c6d565b9150612cb682612c4f565b604082019050919050565b60006020820190508181036000830152612cda81612c9e565b9050919050565b6000612cec82611d14565b9150612cf783611d14565b9250828203905081811115612d0f57612d0e612448565b5b92915050565b600081519050919050565b600082825260208201905092915050565b6000612d3c82612d15565b612d468185612d20565b9350612d56818560208601611c7e565b612d5f81611ca8565b840191505092915050565b6000608082019050612d7f6000830187611da9565b612d8c6020830186611da9565b612d9960408301856120a0565b8181036060830152612dab8184612d31565b905095945050505050565b600081519050612dc581611bd3565b92915050565b600060208284031215612de157612de0611b9d565b5b6000612def84828501612db6565b91505092915050565b7f4552433732313a206d696e7420746f20746865207a65726f2061646472657373600082015250565b6000612e2e602083611c6d565b9150612e3982612df8565b602082019050919050565b60006020820190508181036000830152612e5d81612e21565b9050919050565b7f4552433732313a20746f6b656e20616c7265616479206d696e74656400000000600082015250565b6000612e9a601c83611c6d565b9150612ea582612e64565b602082019050919050565b60006020820190508181036000830152612ec981612e8d565b905091905056fe4142434445464748494a4b4c4d4e4f505152535455565758595a6162636465666768696a6b6c6d6e6f707172737475767778797a303132333435363738392b2fa2646970667358221220e4643a7490d98cdf0fa1ae75eec366a9e7c4b4f0c6f1ec82fdb2b3099234855364736f6c634300081100334142434445464748494a4b4c4d4e4f505152535455565758595a6162636465666768696a6b6c6d6e6f707172737475767778797a303132333435363738392b2f",
  "linkReferences": {},
  "deployedLinkReferences": {}
}