{
  "_format": "hh-sol-artifact-1",
  "contractName": "RandomIpfsNft",
  "sourceName": "contracts/RandomIpfsNft.sol",
  "abi": [
    {
      "inputs": [
        {
          "internalType": "address",
          "name": "vrfCoordinatorV2",
          "type": "address"
        },
        {
          "internalType": "uint64",
          "name": "subscriptionId",
          "type": "uint64"
        },
        {
          "internalType": "bytes32",
          "name": "gasLane",
          "type": "bytes32"
        },
        {
          "internalType": "uint256",
          "name": "mintFee",
          "type": "uint256"
        },
        {
          "internalType": "uint32",
          "name": "callbackGasLimit",
          "type": "uint32"
        },
        {
          "internalType": "string[3]",
          "name": "dogTokenUris",
          "type": "string[3]"
        }
      ],
      "stateMutability": "nonpayable",
      "type": "constructor"
    },
    {
      "inputs": [
        {
          "internalType": "address",
          "name": "have",
          "type": "address"
        },
        {
          "internalType": "address",
          "name": "want",
          "type": "address"
        }
      ],
      "name": "OnlyCoordinatorCanFulfill",
      "type": "error"
    },
    {
      "inputs": [],
      "name": "RandomIpfsNft__AlreadyInitialized",
      "type": "error"
    },
    {
      "inputs": [],
      "name": "RandomIpfsNft__NeedMoreETHSent",
      "type": "error"
    },
    {
      "inputs": [],
      "name": "RandomIpfsNft__RangeOutOfBounds",
      "type": "error"
    },
    {
      "inputs": [],
      "name": "RandomIpfsNft__TransferFailed",
      "type": "error"
    },
    {
      "anonymous": false,
      "inputs": [
        {
          "indexed": true,
          "internalType": "address",
          "name": "owner",
          "type": "address"
        },
        {
          "indexed": true,
          "internalType": "address",
          "name": "approved",
          "type": "address"
        },
        {
          "indexed": true,
          "internalType": "uint256",
          "name": "tokenId",
          "type": "uint256"
        }
      ],
      "name": "Approval",
      "type": "event"
    },
    {
      "anonymous": false,
      "inputs": [
        {
          "indexed": true,
          "internalType": "address",
          "name": "owner",
          "type": "address"
        },
        {
          "indexed": true,
          "internalType": "address",
          "name": "operator",
          "type": "address"
        },
        {
          "indexed": false,
          "internalType": "bool",
          "name": "approved",
          "type": "bool"
        }
      ],
      "name": "ApprovalForAll",
      "type": "event"
    },
    {
      "anonymous": false,
      "inputs": [
        {
          "indexed": false,
          "internalType": "enum RandomIpfsNft.Breed",
          "name": "breed",
          "type": "uint8"
        },
        {
          "indexed": false,
          "internalType": "address",
          "name": "minter",
          "type": "address"
        }
      ],
      "name": "NftMinted",
      "type": "event"
    },
    {
      "anonymous": false,
      "inputs": [
        {
          "indexed": true,
          "internalType": "uint256",
          "name": "requestId",
          "type": "uint256"
        },
        {
          "indexed": false,
          "internalType": "address",
          "name": "requester",
          "type": "address"
        }
      ],
      "name": "NftRequested",
      "type": "event"
    },
    {
      "anonymous": false,
      "inputs": [
        {
          "indexed": true,
          "internalType": "address",
          "name": "previousOwner",
          "type": "address"
        },
        {
          "indexed": true,
          "internalType": "address",
          "name": "newOwner",
          "type": "address"
        }
      ],
      "name": "OwnershipTransferred",
      "type": "event"
    },
    {
      "anonymous": false,
      "inputs": [
        {
          "indexed": true,
          "internalType": "address",
          "name": "from",
          "type": "address"
        },
        {
          "indexed": true,
          "internalType": "address",
          "name": "to",
          "type": "address"
        },
        {
          "indexed": true,
          "internalType": "uint256",
          "name": "tokenId",
          "type": "uint256"
        }
      ],
      "name": "Transfer",
      "type": "event"
    },
    {
      "inputs": [
        {
          "internalType": "address",
          "name": "to",
          "type": "address"
        },
        {
          "internalType": "uint256",
          "name": "tokenId",
          "type": "uint256"
        }
      ],
      "name": "approve",
      "outputs": [],
      "stateMutability": "nonpayable",
      "type": "function"
    },
    {
      "inputs": [
        {
          "internalType": "address",
          "name": "owner",
          "type": "address"
        }
      ],
      "name": "balanceOf",
      "outputs": [
        {
          "internalType": "uint256",
          "name": "",
          "type": "uint256"
        }
      ],
      "stateMutability": "view",
      "type": "function"
    },
    {
      "inputs": [
        {
          "internalType": "uint256",
          "name": "tokenId",
          "type": "uint256"
        }
      ],
      "name": "getApproved",
      "outputs": [
        {
          "internalType": "address",
          "name": "",
          "type": "address"
        }
      ],
      "stateMutability": "view",
      "type": "function"
    },
    {
      "inputs": [
        {
          "internalType": "uint256",
          "name": "moddedRng",
          "type": "uint256"
        }
      ],
      "name": "getBreedFromModdedRng",
      "outputs": [
        {
          "internalType": "enum RandomIpfsNft.Breed",
          "name": "",
          "type": "uint8"
        }
      ],
      "stateMutability": "pure",
      "type": "function"
    },
    {
      "inputs": [],
      "name": "getChanceArray",
      "outputs": [
        {
          "internalType": "uint256[3]",
          "name": "",
          "type": "uint256[3]"
        }
      ],
      "stateMutability": "pure",
      "type": "function"
    },
    {
      "inputs": [
        {
          "internalType": "uint256",
          "name": "index",
          "type": "uint256"
        }
      ],
      "name": "getDogTokenUris",
      "outputs": [
        {
          "internalType": "string",
          "name": "",
          "type": "string"
        }
      ],
      "stateMutability": "view",
      "type": "function"
    },
    {
      "inputs": [],
      "name": "getInitialized",
      "outputs": [
        {
          "internalType": "bool",
          "name": "",
          "type": "bool"
        }
      ],
      "stateMutability": "view",
      "type": "function"
    },
    {
      "inputs": [],
      "name": "getMintFee",
      "outputs": [
        {
          "internalType": "uint256",
          "name": "",
          "type": "uint256"
        }
      ],
      "stateMutability": "view",
      "type": "function"
    },
    {
      "inputs": [],
      "name": "getTokenCounter",
      "outputs": [
        {
          "internalType": "uint256",
          "name": "",
          "type": "uint256"
        }
      ],
      "stateMutability": "view",
      "type": "function"
    },
    {
      "inputs": [
        {
          "internalType": "address",
          "name": "owner",
          "type": "address"
        },
        {
          "internalType": "address",
          "name": "operator",
          "type": "address"
        }
      ],
      "name": "isApprovedForAll",
      "outputs": [
        {
          "internalType": "bool",
          "name": "",
          "type": "bool"
        }
      ],
      "stateMutability": "view",
      "type": "function"
    },
    {
      "inputs": [],
      "name": "name",
      "outputs": [
        {
          "internalType": "string",
          "name": "",
          "type": "string"
        }
      ],
      "stateMutability": "view",
      "type": "function"
    },
    {
      "inputs": [],
      "name": "owner",
      "outputs": [
        {
          "internalType": "address",
          "name": "",
          "type": "address"
        }
      ],
      "stateMutability": "view",
      "type": "function"
    },
    {
      "inputs": [
        {
          "internalType": "uint256",
          "name": "tokenId",
          "type": "uint256"
        }
      ],
      "name": "ownerOf",
      "outputs": [
        {
          "internalType": "address",
          "name": "",
          "type": "address"
        }
      ],
      "stateMutability": "view",
      "type": "function"
    },
    {
      "inputs": [
        {
          "internalType": "uint256",
          "name": "requestId",
          "type": "uint256"
        },
        {
          "internalType": "uint256[]",
          "name": "randomWords",
          "type": "uint256[]"
        }
      ],
      "name": "rawFulfillRandomWords",
      "outputs": [],
      "stateMutability": "nonpayable",
      "type": "function"
    },
    {
      "inputs": [],
      "name": "renounceOwnership",
      "outputs": [],
      "stateMutability": "nonpayable",
      "type": "function"
    },
    {
      "inputs": [],
      "name": "requestNft",
      "outputs": [
        {
          "internalType": "uint256",
          "name": "requestId",
          "type": "uint256"
        }
      ],
      "stateMutability": "payable",
      "type": "function"
    },
    {
      "inputs": [
        {
          "internalType": "uint256",
          "name": "",
          "type": "uint256"
        }
      ],
      "name": "s_requestIdToSender",
      "outputs": [
        {
          "internalType": "address",
          "name": "",
          "type": "address"
        }
      ],
      "stateMutability": "view",
      "type": "function"
    },
    {
      "inputs": [
        {
          "internalType": "address",
          "name": "from",
          "type": "address"
        },
        {
          "internalType": "address",
          "name": "to",
          "type": "address"
        },
        {
          "internalType": "uint256",
          "name": "tokenId",
          "type": "uint256"
        }
      ],
      "name": "safeTransferFrom",
      "outputs": [],
      "stateMutability": "nonpayable",
      "type": "function"
    },
    {
      "inputs": [
        {
          "internalType": "address",
          "name": "from",
          "type": "address"
        },
        {
          "internalType": "address",
          "name": "to",
          "type": "address"
        },
        {
          "internalType": "uint256",
          "name": "tokenId",
          "type": "uint256"
        },
        {
          "internalType": "bytes",
          "name": "data",
          "type": "bytes"
        }
      ],
      "name": "safeTransferFrom",
      "outputs": [],
      "stateMutability": "nonpayable",
      "type": "function"
    },
    {
      "inputs": [
        {
          "internalType": "address",
          "name": "operator",
          "type": "address"
        },
        {
          "internalType": "bool",
          "name": "approved",
          "type": "bool"
        }
      ],
      "name": "setApprovalForAll",
      "outputs": [],
      "stateMutability": "nonpayable",
      "type": "function"
    },
    {
      "inputs": [
        {
          "internalType": "bytes4",
          "name": "interfaceId",
          "type": "bytes4"
        }
      ],
      "name": "supportsInterface",
      "outputs": [
        {
          "internalType": "bool",
          "name": "",
          "type": "bool"
        }
      ],
      "stateMutability": "view",
      "type": "function"
    },
    {
      "inputs": [],
      "name": "symbol",
      "outputs": [
        {
          "internalType": "string",
          "name": "",
          "type": "string"
        }
      ],
      "stateMutability": "view",
      "type": "function"
    },
    {
      "inputs": [
        {
          "internalType": "uint256",
          "name": "tokenId",
          "type": "uint256"
        }
      ],
      "name": "tokenURI",
      "outputs": [
        {
          "internalType": "string",
          "name": "",
          "type": "string"
        }
      ],
      "stateMutability": "view",
      "type": "function"
    },
    {
      "inputs": [
        {
          "internalType": "address",
          "name": "from",
          "type": "address"
        },
        {
          "internalType": "address",
          "name": "to",
          "type": "address"
        },
        {
          "internalType": "uint256",
          "name": "tokenId",
          "type": "uint256"
        }
      ],
      "name": "transferFrom",
      "outputs": [],
      "stateMutability": "nonpayable",
      "type": "function"
    },
    {
      "inputs": [
        {
          "internalType": "address",
          "name": "newOwner",
          "type": "address"
        }
      ],
      "name": "transferOwnership",
      "outputs": [],
      "stateMutability": "nonpayable",
      "type": "function"
    },
    {
      "inputs": [],
      "name": "withdraw",
      "outputs": [],
      "stateMutability": "nonpayable",
      "type": "function"
    }
  ],
  "bytecode": "0x6101406040523480156200001257600080fd5b506040516200497a3803806200497a8339818101604052810190620000389190620007ce565b856040518060400160405280600f81526020017f52616e646f6d2049504653204e465400000000000000000000000000000000008152506040518060400160405280600381526020017f52494e00000000000000000000000000000000000000000000000000000000008152508160009081620000b6919062000aca565b508060019081620000c8919062000aca565b5050508073ffffffffffffffffffffffffffffffffffffffff1660808173ffffffffffffffffffffffffffffffffffffffff1681525050506200012062000114620001bb60201b60201c565b620001c360201b60201c565b8573ffffffffffffffffffffffffffffffffffffffff1660a08173ffffffffffffffffffffffffffffffffffffffff16815250508360e081815250508467ffffffffffffffff1660c08167ffffffffffffffff16815250508261012081815250508163ffffffff166101008163ffffffff1681525050620001a7816200028960201b60201c565b600060088190555050505050505062000bb1565b600033905090565b6000600760009054906101000a900473ffffffffffffffffffffffffffffffffffffffff16905081600760006101000a81548173ffffffffffffffffffffffffffffffffffffffff021916908373ffffffffffffffffffffffffffffffffffffffff1602179055508173ffffffffffffffffffffffffffffffffffffffff168173ffffffffffffffffffffffffffffffffffffffff167f8be0079c531659141344cd1fd0a4f28419497f9722a3daafe3b4186f6b6457e060405160405180910390a35050565b600a60009054906101000a900460ff1615620002d1576040517fddf8bf7000000000000000000000000000000000000000000000000000000000815260040160405180910390fd5b806009906003620002e492919062000303565b506001600a60006101000a81548160ff02191690831515021790555050565b82805482825590600052602060002090810192821562000350579160200282015b828111156200034f5782518290816200033e919062000aca565b509160200191906001019062000324565b5b5090506200035f919062000363565b5090565b5b808211156200038757600081816200037d91906200038b565b5060010162000364565b5090565b5080546200039990620008c3565b6000825580601f10620003ad5750620003ce565b601f016020900490600052602060002090810190620003cd9190620003d1565b5b50565b5b80821115620003ec576000816000905550600101620003d2565b5090565b6000604051905090565b600080fd5b600080fd5b600073ffffffffffffffffffffffffffffffffffffffff82169050919050565b6000620004318262000404565b9050919050565b620004438162000424565b81146200044f57600080fd5b50565b600081519050620004638162000438565b92915050565b600067ffffffffffffffff82169050919050565b620004888162000469565b81146200049457600080fd5b50565b600081519050620004a8816200047d565b92915050565b6000819050919050565b620004c381620004ae565b8114620004cf57600080fd5b50565b600081519050620004e381620004b8565b92915050565b6000819050919050565b620004fe81620004e9565b81146200050a57600080fd5b50565b6000815190506200051e81620004f3565b92915050565b600063ffffffff82169050919050565b6200053f8162000524565b81146200054b57600080fd5b50565b6000815190506200055f8162000534565b92915050565b600080fd5b6000601f19601f8301169050919050565b7f4e487b7100000000000000000000000000000000000000000000000000000000600052604160045260246000fd5b620005b5826200056a565b810181811067ffffffffffffffff82111715620005d757620005d66200057b565b5b80604052505050565b6000620005ec620003f0565b9050620005fa8282620005aa565b919050565b600067ffffffffffffffff8211156200061d576200061c6200057b565b5b602082029050919050565b600080fd5b600080fd5b600067ffffffffffffffff82111562000650576200064f6200057b565b5b6200065b826200056a565b9050602081019050919050565b60005b83811015620006885780820151818401526020810190506200066b565b60008484015250505050565b6000620006ab620006a58462000632565b620005e0565b905082815260208101848484011115620006ca57620006c96200062d565b5b620006d784828562000668565b509392505050565b600082601f830112620006f757620006f662000565565b5b81516200070984826020860162000694565b91505092915050565b6000620007296200072384620005ff565b620005e0565b9050806020840283018581111562000746576200074562000628565b5b835b818110156200079457805167ffffffffffffffff8111156200076f576200076e62000565565b5b8086016200077e8982620006df565b8552602085019450505060208101905062000748565b5050509392505050565b600082601f830112620007b657620007b562000565565b5b6003620007c584828562000712565b91505092915050565b60008060008060008060c08789031215620007ee57620007ed620003fa565b5b6000620007fe89828a0162000452565b96505060206200081189828a0162000497565b95505060406200082489828a01620004d2565b94505060606200083789828a016200050d565b93505060806200084a89828a016200054e565b92505060a087015167ffffffffffffffff8111156200086e576200086d620003ff565b5b6200087c89828a016200079e565b9150509295509295509295565b600081519050919050565b7f4e487b7100000000000000000000000000000000000000000000000000000000600052602260045260246000fd5b60006002820490506001821680620008dc57607f821691505b602082108103620008f257620008f162000894565b5b50919050565b60008190508160005260206000209050919050565b60006020601f8301049050919050565b600082821b905092915050565b6000600883026200095c7fffffffffffffffffffffffffffffffffffffffffffffffffffffffffffffffff826200091d565b6200096886836200091d565b95508019841693508086168417925050509392505050565b6000819050919050565b6000620009ab620009a56200099f84620004e9565b62000980565b620004e9565b9050919050565b6000819050919050565b620009c7836200098a565b620009df620009d682620009b2565b8484546200092a565b825550505050565b600090565b620009f6620009e7565b62000a03818484620009bc565b505050565b5b8181101562000a2b5762000a1f600082620009ec565b60018101905062000a09565b5050565b601f82111562000a7a5762000a4481620008f8565b62000a4f846200090d565b8101602085101562000a5f578190505b62000a7762000a6e856200090d565b83018262000a08565b50505b505050565b600082821c905092915050565b600062000a9f6000198460080262000a7f565b1980831691505092915050565b600062000aba838362000a8c565b9150826002028217905092915050565b62000ad58262000889565b67ffffffffffffffff81111562000af15762000af06200057b565b5b62000afd8254620008c3565b62000b0a82828562000a2f565b600060209050601f83116001811462000b42576000841562000b2d578287015190505b62000b39858262000aac565b86555062000ba9565b601f19841662000b5286620008f8565b60005b8281101562000b7c5784890151825560018201915060208501945060208101905062000b55565b8683101562000b9c578489015162000b98601f89168262000a8c565b8355505b6001600288020188555050505b505050505050565b60805160a05160c05160e0516101005161012051613d6b62000c0f60003960008181610d420152610f3b0152600061101501526000610fd101526000610ff201526000610f95015260008181610916015261096a0152613d6b6000f3fe6080604052600436106101815760003560e01c8063715018a6116100d1578063a51cccf31161008a578063c87b56dd11610064578063c87b56dd14610575578063e985e9c5146105b2578063ee89dab4146105ef578063f2fde38b1461061a57610181565b8063a51cccf3146104f1578063aa1524911461052e578063b88d4fde1461054c57610181565b8063715018a6146103f35780637a5caab31461040a5780638da5cb5b1461043557806395d89b4114610460578063a22cb4651461048b578063a36f573b146104b457610181565b80633af259751161013e5780635dacf5f4116101185780635dacf5f4146103235780636352211e1461034e5780636e02007d1461038b57806370a08231146103b657610181565b80633af25975146102a65780633ccfd60b146102e357806342842e0e146102fa57610181565b806301ffc9a71461018657806306fdde03146101c3578063081812fc146101ee578063095ea7b31461022b5780631fe543e31461025457806323b872dd1461027d575b600080fd5b34801561019257600080fd5b506101ad60048036038101906101a891906126f9565b610643565b6040516101ba9190612741565b60405180910390f35b3480156101cf57600080fd5b506101d8610725565b6040516101e591906127ec565b60405180910390f35b3480156101fa57600080fd5b5061021560048036038101906102109190612844565b6107b7565b60405161022291906128b2565b60405180910390f35b34801561023757600080fd5b50610252600480360381019061024d91906128f9565b6107fd565b005b34801561026057600080fd5b5061027b60048036038101906102769190612a81565b610914565b005b34801561028957600080fd5b506102a4600480360381019061029f9190612add565b6109d4565b005b3480156102b257600080fd5b506102cd60048036038101906102c89190612844565b610a34565b6040516102da91906127ec565b60405180910390f35b3480156102ef57600080fd5b506102f8610ae4565b005b34801561030657600080fd5b50610321600480360381019061031c9190612add565b610b98565b005b34801561032f57600080fd5b50610338610bb8565b6040516103459190612bdb565b60405180910390f35b34801561035a57600080fd5b5061037560048036038101906103709190612844565b610be3565b60405161038291906128b2565b60405180910390f35b34801561039757600080fd5b506103a0610c69565b6040516103ad9190612c05565b60405180910390f35b3480156103c257600080fd5b506103dd60048036038101906103d89190612c20565b610c73565b6040516103ea9190612c05565b60405180910390f35b3480156103ff57600080fd5b50610408610d2a565b005b34801561041657600080fd5b5061041f610d3e565b60405161042c9190612c05565b60405180910390f35b34801561044157600080fd5b5061044a610d66565b60405161045791906128b2565b60405180910390f35b34801561046c57600080fd5b50610475610d90565b60405161048291906127ec565b60405180910390f35b34801561049757600080fd5b506104b260048036038101906104ad9190612c79565b610e22565b005b3480156104c057600080fd5b506104db60048036038101906104d69190612844565b610e38565b6040516104e891906128b2565b60405180910390f35b3480156104fd57600080fd5b5061051860048036038101906105139190612844565b610e6b565b6040516105259190612d30565b60405180910390f35b610536610f37565b6040516105439190612c05565b60405180910390f35b34801561055857600080fd5b50610573600480360381019061056e9190612e00565b611128565b005b34801561058157600080fd5b5061059c60048036038101906105979190612844565b61118a565b6040516105a991906127ec565b60405180910390f35b3480156105be57600080fd5b506105d960048036038101906105d49190612e83565b61129c565b6040516105e69190612741565b60405180910390f35b3480156105fb57600080fd5b50610604611330565b6040516106119190612741565b60405180910390f35b34801561062657600080fd5b50610641600480360381019061063c9190612c20565b611347565b005b60007f80ac58cd000000000000000000000000000000000000000000000000000000007bffffffffffffffffffffffffffffffffffffffffffffffffffffffff1916827bffffffffffffffffffffffffffffffffffffffffffffffffffffffff1916148061070e57507f5b5e139f000000000000000000000000000000000000000000000000000000007bffffffffffffffffffffffffffffffffffffffffffffffffffffffff1916827bffffffffffffffffffffffffffffffffffffffffffffffffffffffff1916145b8061071e575061071d826113ca565b5b9050919050565b60606000805461073490612ef2565b80601f016020809104026020016040519081016040528092919081815260200182805461076090612ef2565b80156107ad5780601f10610782576101008083540402835291602001916107ad565b820191906000526020600020905b81548152906001019060200180831161079057829003601f168201915b5050505050905090565b60006107c282611434565b6004600083815260200190815260200160002060009054906101000a900473ffffffffffffffffffffffffffffffffffffffff169050919050565b600061080882610be3565b90508073ffffffffffffffffffffffffffffffffffffffff168373ffffffffffffffffffffffffffffffffffffffff1603610878576040517f08c379a000000000000000000000000000000000000000000000000000000000815260040161086f90612f95565b60405180910390fd5b8073ffffffffffffffffffffffffffffffffffffffff1661089761147f565b73ffffffffffffffffffffffffffffffffffffffff1614806108c657506108c5816108c061147f565b61129c565b5b610905576040517f08c379a00000000000000000000000000000000000000000000000000000000081526004016108fc90613027565b60405180910390fd5b61090f8383611487565b505050565b7f000000000000000000000000000000000000000000000000000000000000000073ffffffffffffffffffffffffffffffffffffffff163373ffffffffffffffffffffffffffffffffffffffff16146109c657337f00000000000000000000000000000000000000000000000000000000000000006040517f1cf993f40000000000000000000000000000000000000000000000000000000081526004016109bd929190613047565b60405180910390fd5b6109d08282611540565b5050565b6109e56109df61147f565b826116da565b610a24576040517f08c379a0000000000000000000000000000000000000000000000000000000008152600401610a1b906130e2565b60405180910390fd5b610a2f83838361176f565b505050565b606060098281548110610a4a57610a49613102565b5b906000526020600020018054610a5f90612ef2565b80601f0160208091040260200160405190810160405280929190818152602001828054610a8b90612ef2565b8015610ad85780601f10610aad57610100808354040283529160200191610ad8565b820191906000526020600020905b815481529060010190602001808311610abb57829003601f168201915b50505050509050919050565b610aec611a68565b600047905060003373ffffffffffffffffffffffffffffffffffffffff1682604051610b1790613162565b60006040518083038185875af1925050503d8060008114610b54576040519150601f19603f3d011682016040523d82523d6000602084013e610b59565b606091505b5050905080610b94576040517fca7e25b700000000000000000000000000000000000000000000000000000000815260040160405180910390fd5b5050565b610bb383838360405180602001604052806000815250611128565b505050565b610bc061266b565b6040518060600160405280600a8152602001602881526020016064815250905090565b600080610bef83611ae6565b9050600073ffffffffffffffffffffffffffffffffffffffff168173ffffffffffffffffffffffffffffffffffffffff1603610c60576040517f08c379a0000000000000000000000000000000000000000000000000000000008152600401610c57906131c3565b60405180910390fd5b80915050919050565b6000600854905090565b60008073ffffffffffffffffffffffffffffffffffffffff168273ffffffffffffffffffffffffffffffffffffffff1603610ce3576040517f08c379a0000000000000000000000000000000000000000000000000000000008152600401610cda90613255565b60405180910390fd5b600360008373ffffffffffffffffffffffffffffffffffffffff1673ffffffffffffffffffffffffffffffffffffffff168152602001908152602001600020549050919050565b610d32611a68565b610d3c6000611b23565b565b60007f0000000000000000000000000000000000000000000000000000000000000000905090565b6000600760009054906101000a900473ffffffffffffffffffffffffffffffffffffffff16905090565b606060018054610d9f90612ef2565b80601f0160208091040260200160405190810160405280929190818152602001828054610dcb90612ef2565b8015610e185780601f10610ded57610100808354040283529160200191610e18565b820191906000526020600020905b815481529060010190602001808311610dfb57829003601f168201915b5050505050905090565b610e34610e2d61147f565b8383611be9565b5050565b600b6020528060005260406000206000915054906101000a900473ffffffffffffffffffffffffffffffffffffffff1681565b600080600090506000610e7c610bb8565b905060005b6003811015610eff57828510158015610eb05750818160038110610ea857610ea7613102565b5b602002015185105b15610ed257806002811115610ec857610ec7612cb9565b5b9350505050610f32565b818160038110610ee557610ee4613102565b5b602002015192508080610ef7906132a4565b915050610e81565b506040517f12806c9d00000000000000000000000000000000000000000000000000000000815260040160405180910390fd5b919050565b60007f0000000000000000000000000000000000000000000000000000000000000000341015610f93576040517fb90f491000000000000000000000000000000000000000000000000000000000815260040160405180910390fd5b7f000000000000000000000000000000000000000000000000000000000000000073ffffffffffffffffffffffffffffffffffffffff16635d3b1d307f00000000000000000000000000000000000000000000000000000000000000007f000000000000000000000000000000000000000000000000000000000000000060037f000000000000000000000000000000000000000000000000000000000000000060016040518663ffffffff1660e01b8152600401611056959493929190613364565b6020604051808303816000875af1158015611075573d6000803e3d6000fd5b505050506040513d601f19601f8201168201806040525081019061109991906133cc565b905033600b600083815260200190815260200160002060006101000a81548173ffffffffffffffffffffffffffffffffffffffff021916908373ffffffffffffffffffffffffffffffffffffffff160217905550807ff873236e6cc0ecc5be1a9a35c95ee5b8d1ac4cc7bfef0cc5060391d6cc98e26b3360405161111d91906128b2565b60405180910390a290565b61113961113361147f565b836116da565b611178576040517f08c379a000000000000000000000000000000000000000000000000000000000815260040161116f906130e2565b60405180910390fd5b61118484848484611d55565b50505050565b606061119582611434565b60006006600084815260200190815260200160002080546111b590612ef2565b80601f01602080910402602001604051908101604052809291908181526020018280546111e190612ef2565b801561122e5780601f106112035761010080835404028352916020019161122e565b820191906000526020600020905b81548152906001019060200180831161121157829003601f168201915b50505050509050600061123f611db1565b90506000815103611254578192505050611297565b600082511115611289578082604051602001611271929190613435565b60405160208183030381529060405292505050611297565b61129284611dc8565b925050505b919050565b6000600560008473ffffffffffffffffffffffffffffffffffffffff1673ffffffffffffffffffffffffffffffffffffffff16815260200190815260200160002060008373ffffffffffffffffffffffffffffffffffffffff1673ffffffffffffffffffffffffffffffffffffffff16815260200190815260200160002060009054906101000a900460ff16905092915050565b6000600a60009054906101000a900460ff16905090565b61134f611a68565b600073ffffffffffffffffffffffffffffffffffffffff168173ffffffffffffffffffffffffffffffffffffffff16036113be576040517f08c379a00000000000000000000000000000000000000000000000000000000081526004016113b5906134cb565b60405180910390fd5b6113c781611b23565b50565b60007f01ffc9a7000000000000000000000000000000000000000000000000000000007bffffffffffffffffffffffffffffffffffffffffffffffffffffffff1916827bffffffffffffffffffffffffffffffffffffffffffffffffffffffff1916149050919050565b61143d81611e30565b61147c576040517f08c379a0000000000000000000000000000000000000000000000000000000008152600401611473906131c3565b60405180910390fd5b50565b600033905090565b816004600083815260200190815260200160002060006101000a81548173ffffffffffffffffffffffffffffffffffffffff021916908373ffffffffffffffffffffffffffffffffffffffff160217905550808273ffffffffffffffffffffffffffffffffffffffff166114fa83610be3565b73ffffffffffffffffffffffffffffffffffffffff167f8c5be1e5ebec7d5bd14f71427d1e84f3dd0314c0f7b2291e5b200ac8c7c3b92560405160405180910390a45050565b6000600b600084815260200190815260200160002060009054906101000a900473ffffffffffffffffffffffffffffffffffffffff16905060006008549050600160085461158e91906134eb565b60088190555060006064846000815181106115ac576115ab613102565b5b60200260200101516115be919061354e565b905060006115cb82610e6b565b90506115d78484611e71565b6116998360098360028111156115f0576115ef612cb9565b5b8154811061160157611600613102565b5b90600052602060002001805461161690612ef2565b80601f016020809104026020016040519081016040528092919081815260200182805461164290612ef2565b801561168f5780601f106116645761010080835404028352916020019161168f565b820191906000526020600020905b81548152906001019060200180831161167257829003601f168201915b5050505050611e8f565b7f8a269f26b688e110e9cbd887d163dab35cae678fa353a0292de532c0cac1ecdc81856040516116ca92919061357f565b60405180910390a1505050505050565b6000806116e683610be3565b90508073ffffffffffffffffffffffffffffffffffffffff168473ffffffffffffffffffffffffffffffffffffffff1614806117285750611727818561129c565b5b8061176657508373ffffffffffffffffffffffffffffffffffffffff1661174e846107b7565b73ffffffffffffffffffffffffffffffffffffffff16145b91505092915050565b8273ffffffffffffffffffffffffffffffffffffffff1661178f82610be3565b73ffffffffffffffffffffffffffffffffffffffff16146117e5576040517f08c379a00000000000000000000000000000000000000000000000000000000081526004016117dc9061361a565b60405180910390fd5b600073ffffffffffffffffffffffffffffffffffffffff168273ffffffffffffffffffffffffffffffffffffffff1603611854576040517f08c379a000000000000000000000000000000000000000000000000000000000815260040161184b906136ac565b60405180910390fd5b6118618383836001611efc565b8273ffffffffffffffffffffffffffffffffffffffff1661188182610be3565b73ffffffffffffffffffffffffffffffffffffffff16146118d7576040517f08c379a00000000000000000000000000000000000000000000000000000000081526004016118ce9061361a565b60405180910390fd5b6004600082815260200190815260200160002060006101000a81549073ffffffffffffffffffffffffffffffffffffffff02191690556001600360008573ffffffffffffffffffffffffffffffffffffffff1673ffffffffffffffffffffffffffffffffffffffff168152602001908152602001600020600082825403925050819055506001600360008473ffffffffffffffffffffffffffffffffffffffff1673ffffffffffffffffffffffffffffffffffffffff16815260200190815260200160002060008282540192505081905550816002600083815260200190815260200160002060006101000a81548173ffffffffffffffffffffffffffffffffffffffff021916908373ffffffffffffffffffffffffffffffffffffffff160217905550808273ffffffffffffffffffffffffffffffffffffffff168473ffffffffffffffffffffffffffffffffffffffff167fddf252ad1be2c89b69c2b068fc378daa952ba7f163c4a11628f55a4df523b3ef60405160405180910390a4611a638383836001612022565b505050565b611a7061147f565b73ffffffffffffffffffffffffffffffffffffffff16611a8e610d66565b73ffffffffffffffffffffffffffffffffffffffff1614611ae4576040517f08c379a0000000000000000000000000000000000000000000000000000000008152600401611adb90613718565b60405180910390fd5b565b60006002600083815260200190815260200160002060009054906101000a900473ffffffffffffffffffffffffffffffffffffffff169050919050565b6000600760009054906101000a900473ffffffffffffffffffffffffffffffffffffffff16905081600760006101000a81548173ffffffffffffffffffffffffffffffffffffffff021916908373ffffffffffffffffffffffffffffffffffffffff1602179055508173ffffffffffffffffffffffffffffffffffffffff168173ffffffffffffffffffffffffffffffffffffffff167f8be0079c531659141344cd1fd0a4f28419497f9722a3daafe3b4186f6b6457e060405160405180910390a35050565b8173ffffffffffffffffffffffffffffffffffffffff168373ffffffffffffffffffffffffffffffffffffffff1603611c57576040517f08c379a0000000000000000000000000000000000000000000000000000000008152600401611c4e90613784565b60405180910390fd5b80600560008573ffffffffffffffffffffffffffffffffffffffff1673ffffffffffffffffffffffffffffffffffffffff16815260200190815260200160002060008473ffffffffffffffffffffffffffffffffffffffff1673ffffffffffffffffffffffffffffffffffffffff16815260200190815260200160002060006101000a81548160ff0219169083151502179055508173ffffffffffffffffffffffffffffffffffffffff168373ffffffffffffffffffffffffffffffffffffffff167f17307eab39ab6107e8899845ad3d59bd9653f200f220920489ca2b5937696c3183604051611d489190612741565b60405180910390a3505050565b611d6084848461176f565b611d6c84848484612028565b611dab576040517f08c379a0000000000000000000000000000000000000000000000000000000008152600401611da290613816565b60405180910390fd5b50505050565b606060405180602001604052806000815250905090565b6060611dd382611434565b6000611ddd611db1565b90506000815111611dfd5760405180602001604052806000815250611e28565b80611e07846121af565b604051602001611e18929190613435565b6040516020818303038152906040525b915050919050565b60008073ffffffffffffffffffffffffffffffffffffffff16611e5283611ae6565b73ffffffffffffffffffffffffffffffffffffffff1614159050919050565b611e8b82826040518060200160405280600081525061227d565b5050565b611e9882611e30565b611ed7576040517f08c379a0000000000000000000000000000000000000000000000000000000008152600401611ece906138a8565b60405180910390fd5b80600660008481526020019081526020016000209081611ef79190613a74565b505050565b600181111561201c57600073ffffffffffffffffffffffffffffffffffffffff168473ffffffffffffffffffffffffffffffffffffffff1614611f905780600360008673ffffffffffffffffffffffffffffffffffffffff1673ffffffffffffffffffffffffffffffffffffffff1681526020019081526020016000206000828254611f889190613b46565b925050819055505b600073ffffffffffffffffffffffffffffffffffffffff168373ffffffffffffffffffffffffffffffffffffffff161461201b5780600360008573ffffffffffffffffffffffffffffffffffffffff1673ffffffffffffffffffffffffffffffffffffffff168152602001908152602001600020600082825461201391906134eb565b925050819055505b5b50505050565b50505050565b60006120498473ffffffffffffffffffffffffffffffffffffffff166122d8565b156121a2578373ffffffffffffffffffffffffffffffffffffffff1663150b7a0261207261147f565b8786866040518563ffffffff1660e01b81526004016120949493929190613bcf565b6020604051808303816000875af19250505080156120d057506040513d601f19601f820116820180604052508101906120cd9190613c30565b60015b612152573d8060008114612100576040519150601f19603f3d011682016040523d82523d6000602084013e612105565b606091505b50600081510361214a576040517f08c379a000000000000000000000000000000000000000000000000000000000815260040161214190613816565b60405180910390fd5b805181602001fd5b63150b7a0260e01b7bffffffffffffffffffffffffffffffffffffffffffffffffffffffff1916817bffffffffffffffffffffffffffffffffffffffffffffffffffffffff1916149150506121a7565b600190505b949350505050565b6060600060016121be846122fb565b01905060008167ffffffffffffffff8111156121dd576121dc61293e565b5b6040519080825280601f01601f19166020018201604052801561220f5781602001600182028036833780820191505090505b509050600082602001820190505b600115612272578080600190039150507f3031323334353637383961626364656600000000000000000000000000000000600a86061a8153600a85816122665761226561351f565b5b0494506000850361221d575b819350505050919050565b612287838361244e565b6122946000848484612028565b6122d3576040517f08c379a00000000000000000000000000000000000000000000000000000000081526004016122ca90613816565b60405180910390fd5b505050565b6000808273ffffffffffffffffffffffffffffffffffffffff163b119050919050565b600080600090507a184f03e93ff9f4daa797ed6e38ed64bf6a1f0100000000000000008310612359577a184f03e93ff9f4daa797ed6e38ed64bf6a1f010000000000000000838161234f5761234e61351f565b5b0492506040810190505b6d04ee2d6d415b85acef81000000008310612396576d04ee2d6d415b85acef8100000000838161238c5761238b61351f565b5b0492506020810190505b662386f26fc1000083106123c557662386f26fc1000083816123bb576123ba61351f565b5b0492506010810190505b6305f5e10083106123ee576305f5e10083816123e4576123e361351f565b5b0492506008810190505b61271083106124135761271083816124095761240861351f565b5b0492506004810190505b60648310612436576064838161242c5761242b61351f565b5b0492506002810190505b600a8310612445576001810190505b80915050919050565b600073ffffffffffffffffffffffffffffffffffffffff168273ffffffffffffffffffffffffffffffffffffffff16036124bd576040517f08c379a00000000000000000000000000000000000000000000000000000000081526004016124b490613ca9565b60405180910390fd5b6124c681611e30565b15612506576040517f08c379a00000000000000000000000000000000000000000000000000000000081526004016124fd90613d15565b60405180910390fd5b612514600083836001611efc565b61251d81611e30565b1561255d576040517f08c379a000000000000000000000000000000000000000000000000000000000815260040161255490613d15565b60405180910390fd5b6001600360008473ffffffffffffffffffffffffffffffffffffffff1673ffffffffffffffffffffffffffffffffffffffff16815260200190815260200160002060008282540192505081905550816002600083815260200190815260200160002060006101000a81548173ffffffffffffffffffffffffffffffffffffffff021916908373ffffffffffffffffffffffffffffffffffffffff160217905550808273ffffffffffffffffffffffffffffffffffffffff16600073ffffffffffffffffffffffffffffffffffffffff167fddf252ad1be2c89b69c2b068fc378daa952ba7f163c4a11628f55a4df523b3ef60405160405180910390a4612667600083836001612022565b5050565b6040518060600160405280600390602082028036833780820191505090505090565b6000604051905090565b600080fd5b600080fd5b60007fffffffff0000000000000000000000000000000000000000000000000000000082169050919050565b6126d6816126a1565b81146126e157600080fd5b50565b6000813590506126f3816126cd565b92915050565b60006020828403121561270f5761270e612697565b5b600061271d848285016126e4565b91505092915050565b60008115159050919050565b61273b81612726565b82525050565b60006020820190506127566000830184612732565b92915050565b600081519050919050565b600082825260208201905092915050565b60005b8381101561279657808201518184015260208101905061277b565b60008484015250505050565b6000601f19601f8301169050919050565b60006127be8261275c565b6127c88185612767565b93506127d8818560208601612778565b6127e1816127a2565b840191505092915050565b6000602082019050818103600083015261280681846127b3565b905092915050565b6000819050919050565b6128218161280e565b811461282c57600080fd5b50565b60008135905061283e81612818565b92915050565b60006020828403121561285a57612859612697565b5b60006128688482850161282f565b91505092915050565b600073ffffffffffffffffffffffffffffffffffffffff82169050919050565b600061289c82612871565b9050919050565b6128ac81612891565b82525050565b60006020820190506128c760008301846128a3565b92915050565b6128d681612891565b81146128e157600080fd5b50565b6000813590506128f3816128cd565b92915050565b600080604083850312156129105761290f612697565b5b600061291e858286016128e4565b925050602061292f8582860161282f565b9150509250929050565b600080fd5b7f4e487b7100000000000000000000000000000000000000000000000000000000600052604160045260246000fd5b612976826127a2565b810181811067ffffffffffffffff821117156129955761299461293e565b5b80604052505050565b60006129a861268d565b90506129b4828261296d565b919050565b600067ffffffffffffffff8211156129d4576129d361293e565b5b602082029050602081019050919050565b600080fd5b60006129fd6129f8846129b9565b61299e565b90508083825260208201905060208402830185811115612a2057612a1f6129e5565b5b835b81811015612a495780612a35888261282f565b845260208401935050602081019050612a22565b5050509392505050565b600082601f830112612a6857612a67612939565b5b8135612a788482602086016129ea565b91505092915050565b60008060408385031215612a9857612a97612697565b5b6000612aa68582860161282f565b925050602083013567ffffffffffffffff811115612ac757612ac661269c565b5b612ad385828601612a53565b9150509250929050565b600080600060608486031215612af657612af5612697565b5b6000612b04868287016128e4565b9350506020612b15868287016128e4565b9250506040612b268682870161282f565b9150509250925092565b600060039050919050565b600081905092915050565b6000819050919050565b612b598161280e565b82525050565b6000612b6b8383612b50565b60208301905092915050565b6000602082019050919050565b612b8d81612b30565b612b978184612b3b565b9250612ba282612b46565b8060005b83811015612bd3578151612bba8782612b5f565b9650612bc583612b77565b925050600181019050612ba6565b505050505050565b6000606082019050612bf06000830184612b84565b92915050565b612bff8161280e565b82525050565b6000602082019050612c1a6000830184612bf6565b92915050565b600060208284031215612c3657612c35612697565b5b6000612c44848285016128e4565b91505092915050565b612c5681612726565b8114612c6157600080fd5b50565b600081359050612c7381612c4d565b92915050565b60008060408385031215612c9057612c8f612697565b5b6000612c9e858286016128e4565b9250506020612caf85828601612c64565b9150509250929050565b7f4e487b7100000000000000000000000000000000000000000000000000000000600052602160045260246000fd5b60038110612cf957612cf8612cb9565b5b50565b6000819050612d0a82612ce8565b919050565b6000612d1a82612cfc565b9050919050565b612d2a81612d0f565b82525050565b6000602082019050612d456000830184612d21565b92915050565b600080fd5b600067ffffffffffffffff821115612d6b57612d6a61293e565b5b612d74826127a2565b9050602081019050919050565b82818337600083830152505050565b6000612da3612d9e84612d50565b61299e565b905082815260208101848484011115612dbf57612dbe612d4b565b5b612dca848285612d81565b509392505050565b600082601f830112612de757612de6612939565b5b8135612df7848260208601612d90565b91505092915050565b60008060008060808587031215612e1a57612e19612697565b5b6000612e28878288016128e4565b9450506020612e39878288016128e4565b9350506040612e4a8782880161282f565b925050606085013567ffffffffffffffff811115612e6b57612e6a61269c565b5b612e7787828801612dd2565b91505092959194509250565b60008060408385031215612e9a57612e99612697565b5b6000612ea8858286016128e4565b9250506020612eb9858286016128e4565b9150509250929050565b7f4e487b7100000000000000000000000000000000000000000000000000000000600052602260045260246000fd5b60006002820490506001821680612f0a57607f821691505b602082108103612f1d57612f1c612ec3565b5b50919050565b7f4552433732313a20617070726f76616c20746f2063757272656e74206f776e6560008201527f7200000000000000000000000000000000000000000000000000000000000000602082015250565b6000612f7f602183612767565b9150612f8a82612f23565b604082019050919050565b60006020820190508181036000830152612fae81612f72565b9050919050565b7f4552433732313a20617070726f76652063616c6c6572206973206e6f7420746f60008201527f6b656e206f776e6572206f7220617070726f76656420666f7220616c6c000000602082015250565b6000613011603d83612767565b915061301c82612fb5565b604082019050919050565b6000602082019050818103600083015261304081613004565b9050919050565b600060408201905061305c60008301856128a3565b61306960208301846128a3565b9392505050565b7f4552433732313a2063616c6c6572206973206e6f7420746f6b656e206f776e6560008201527f72206f7220617070726f76656400000000000000000000000000000000000000602082015250565b60006130cc602d83612767565b91506130d782613070565b604082019050919050565b600060208201905081810360008301526130fb816130bf565b9050919050565b7f4e487b7100000000000000000000000000000000000000000000000000000000600052603260045260246000fd5b600081905092915050565b50565b600061314c600083613131565b91506131578261313c565b600082019050919050565b600061316d8261313f565b9150819050919050565b7f4552433732313a20696e76616c696420746f6b656e2049440000000000000000600082015250565b60006131ad601883612767565b91506131b882613177565b602082019050919050565b600060208201905081810360008301526131dc816131a0565b9050919050565b7f4552433732313a2061646472657373207a65726f206973206e6f74206120766160008201527f6c6964206f776e65720000000000000000000000000000000000000000000000602082015250565b600061323f602983612767565b915061324a826131e3565b604082019050919050565b6000602082019050818103600083015261326e81613232565b9050919050565b7f4e487b7100000000000000000000000000000000000000000000000000000000600052601160045260246000fd5b60006132af8261280e565b91507fffffffffffffffffffffffffffffffffffffffffffffffffffffffffffffffff82036132e1576132e0613275565b5b600182019050919050565b6000819050919050565b6132ff816132ec565b82525050565b600067ffffffffffffffff82169050919050565b61332281613305565b82525050565b600061ffff82169050919050565b61333f81613328565b82525050565b600063ffffffff82169050919050565b61335e81613345565b82525050565b600060a08201905061337960008301886132f6565b6133866020830187613319565b6133936040830186613336565b6133a06060830185613355565b6133ad6080830184613355565b9695505050505050565b6000815190506133c681612818565b92915050565b6000602082840312156133e2576133e1612697565b5b60006133f0848285016133b7565b91505092915050565b600081905092915050565b600061340f8261275c565b61341981856133f9565b9350613429818560208601612778565b80840191505092915050565b60006134418285613404565b915061344d8284613404565b91508190509392505050565b7f4f776e61626c653a206e6577206f776e657220697320746865207a65726f206160008201527f6464726573730000000000000000000000000000000000000000000000000000602082015250565b60006134b5602683612767565b91506134c082613459565b604082019050919050565b600060208201905081810360008301526134e4816134a8565b9050919050565b60006134f68261280e565b91506135018361280e565b925082820190508082111561351957613518613275565b5b92915050565b7f4e487b7100000000000000000000000000000000000000000000000000000000600052601260045260246000fd5b60006135598261280e565b91506135648361280e565b9250826135745761357361351f565b5b828206905092915050565b60006040820190506135946000830185612d21565b6135a160208301846128a3565b9392505050565b7f4552433732313a207472616e736665722066726f6d20696e636f72726563742060008201527f6f776e6572000000000000000000000000000000000000000000000000000000602082015250565b6000613604602583612767565b915061360f826135a8565b604082019050919050565b60006020820190508181036000830152613633816135f7565b9050919050565b7f4552433732313a207472616e7366657220746f20746865207a65726f2061646460008201527f7265737300000000000000000000000000000000000000000000000000000000602082015250565b6000613696602483612767565b91506136a18261363a565b604082019050919050565b600060208201905081810360008301526136c581613689565b9050919050565b7f4f776e61626c653a2063616c6c6572206973206e6f7420746865206f776e6572600082015250565b6000613702602083612767565b915061370d826136cc565b602082019050919050565b60006020820190508181036000830152613731816136f5565b9050919050565b7f4552433732313a20617070726f766520746f2063616c6c657200000000000000600082015250565b600061376e601983612767565b915061377982613738565b602082019050919050565b6000602082019050818103600083015261379d81613761565b9050919050565b7f4552433732313a207472616e7366657220746f206e6f6e20455243373231526560008201527f63656976657220696d706c656d656e7465720000000000000000000000000000602082015250565b6000613800603283612767565b915061380b826137a4565b604082019050919050565b6000602082019050818103600083015261382f816137f3565b9050919050565b7f45524337323155524953746f726167653a2055524920736574206f66206e6f6e60008201527f6578697374656e7420746f6b656e000000000000000000000000000000000000602082015250565b6000613892602e83612767565b915061389d82613836565b604082019050919050565b600060208201905081810360008301526138c181613885565b9050919050565b60008190508160005260206000209050919050565b60006020601f8301049050919050565b600082821b905092915050565b60006008830261392a7fffffffffffffffffffffffffffffffffffffffffffffffffffffffffffffffff826138ed565b61393486836138ed565b95508019841693508086168417925050509392505050565b6000819050919050565b600061397161396c6139678461280e565b61394c565b61280e565b9050919050565b6000819050919050565b61398b83613956565b61399f61399782613978565b8484546138fa565b825550505050565b600090565b6139b46139a7565b6139bf818484613982565b505050565b5b818110156139e3576139d86000826139ac565b6001810190506139c5565b5050565b601f821115613a28576139f9816138c8565b613a02846138dd565b81016020851015613a11578190505b613a25613a1d856138dd565b8301826139c4565b50505b505050565b600082821c905092915050565b6000613a4b60001984600802613a2d565b1980831691505092915050565b6000613a648383613a3a565b9150826002028217905092915050565b613a7d8261275c565b67ffffffffffffffff811115613a9657613a9561293e565b5b613aa08254612ef2565b613aab8282856139e7565b600060209050601f831160018114613ade5760008415613acc578287015190505b613ad68582613a58565b865550613b3e565b601f198416613aec866138c8565b60005b82811015613b1457848901518255600182019150602085019450602081019050613aef565b86831015613b315784890151613b2d601f891682613a3a565b8355505b6001600288020188555050505b505050505050565b6000613b518261280e565b9150613b5c8361280e565b9250828203905081811115613b7457613b73613275565b5b92915050565b600081519050919050565b600082825260208201905092915050565b6000613ba182613b7a565b613bab8185613b85565b9350613bbb818560208601612778565b613bc4816127a2565b840191505092915050565b6000608082019050613be460008301876128a3565b613bf160208301866128a3565b613bfe6040830185612bf6565b8181036060830152613c108184613b96565b905095945050505050565b600081519050613c2a816126cd565b92915050565b600060208284031215613c4657613c45612697565b5b6000613c5484828501613c1b565b91505092915050565b7f4552433732313a206d696e7420746f20746865207a65726f2061646472657373600082015250565b6000613c93602083612767565b9150613c9e82613c5d565b602082019050919050565b60006020820190508181036000830152613cc281613c86565b9050919050565b7f4552433732313a20746f6b656e20616c7265616479206d696e74656400000000600082015250565b6000613cff601c83612767565b9150613d0a82613cc9565b602082019050919050565b60006020820190508181036000830152613d2e81613cf2565b905091905056fea2646970667358221220598caccec19c0080c96ddad8c444ac4943e97573fb2da1fbaf8113e50b5ccadb64736f6c63430008110033",
  "linkReferences": {},
  "deployedLinkReferences": {}
}