{
  "_format": "hh-sol-artifact-1",
  "contractName": "RandomIpfsNft",
  "sourceName": "contracts/RandomIpfsNft.sol",
  "abi": [
    {
      "inputs": [
        {
          "internalType": "address",
          "name": "vrfCoordinatorV2",
          "type": "address"
        },
        {
          "internalType": "uint64",
          "name": "subscriptionId",
          "type": "uint64"
        },
        {
          "internalType": "bytes32",
          "name": "gasLane",
          "type": "bytes32"
        },
        {
          "internalType": "uint256",
          "name": "mintFee",
          "type": "uint256"
        },
        {
          "internalType": "uint32",
          "name": "callbackGasLimit",
          "type": "uint32"
        },
        {
          "internalType": "string[3]",
          "name": "dogTokenUris",
          "type": "string[3]"
        }
      ],
      "stateMutability": "nonpayable",
      "type": "constructor"
    },
    {
      "inputs": [
        {
          "internalType": "address",
          "name": "have",
          "type": "address"
        },
        {
          "internalType": "address",
          "name": "want",
          "type": "address"
        }
      ],
      "name": "OnlyCoordinatorCanFulfill",
      "type": "error"
    },
    {
      "inputs": [],
      "name": "RandomIpfsNft__AlreadyInitialized",
      "type": "error"
    },
    {
      "inputs": [],
      "name": "RandomIpfsNft__NeedMoreETHSent",
      "type": "error"
    },
    {
      "inputs": [],
      "name": "RandomIpfsNft__RangeOutOfBounds",
      "type": "error"
    },
    {
      "inputs": [],
      "name": "RandomIpfsNft__TransferFailed",
      "type": "error"
    },
    {
      "anonymous": false,
      "inputs": [
        {
          "indexed": true,
          "internalType": "address",
          "name": "owner",
          "type": "address"
        },
        {
          "indexed": true,
          "internalType": "address",
          "name": "approved",
          "type": "address"
        },
        {
          "indexed": true,
          "internalType": "uint256",
          "name": "tokenId",
          "type": "uint256"
        }
      ],
      "name": "Approval",
      "type": "event"
    },
    {
      "anonymous": false,
      "inputs": [
        {
          "indexed": true,
          "internalType": "address",
          "name": "owner",
          "type": "address"
        },
        {
          "indexed": true,
          "internalType": "address",
          "name": "operator",
          "type": "address"
        },
        {
          "indexed": false,
          "internalType": "bool",
          "name": "approved",
          "type": "bool"
        }
      ],
      "name": "ApprovalForAll",
      "type": "event"
    },
    {
      "anonymous": false,
      "inputs": [
        {
          "indexed": false,
          "internalType": "enum RandomIpfsNft.Breed",
          "name": "breed",
          "type": "uint8"
        },
        {
          "indexed": false,
          "internalType": "address",
          "name": "minter",
          "type": "address"
        }
      ],
      "name": "NftMinted",
      "type": "event"
    },
    {
      "anonymous": false,
      "inputs": [
        {
          "indexed": true,
          "internalType": "uint256",
          "name": "requestId",
          "type": "uint256"
        },
        {
          "indexed": false,
          "internalType": "address",
          "name": "requester",
          "type": "address"
        }
      ],
      "name": "NftRequested",
      "type": "event"
    },
    {
      "anonymous": false,
      "inputs": [
        {
          "indexed": true,
          "internalType": "address",
          "name": "previousOwner",
          "type": "address"
        },
        {
          "indexed": true,
          "internalType": "address",
          "name": "newOwner",
          "type": "address"
        }
      ],
      "name": "OwnershipTransferred",
      "type": "event"
    },
    {
      "anonymous": false,
      "inputs": [
        {
          "indexed": true,
          "internalType": "address",
          "name": "from",
          "type": "address"
        },
        {
          "indexed": true,
          "internalType": "address",
          "name": "to",
          "type": "address"
        },
        {
          "indexed": true,
          "internalType": "uint256",
          "name": "tokenId",
          "type": "uint256"
        }
      ],
      "name": "Transfer",
      "type": "event"
    },
    {
      "inputs": [
        {
          "internalType": "address",
          "name": "to",
          "type": "address"
        },
        {
          "internalType": "uint256",
          "name": "tokenId",
          "type": "uint256"
        }
      ],
      "name": "approve",
      "outputs": [],
      "stateMutability": "nonpayable",
      "type": "function"
    },
    {
      "inputs": [
        {
          "internalType": "address",
          "name": "owner",
          "type": "address"
        }
      ],
      "name": "balanceOf",
      "outputs": [
        {
          "internalType": "uint256",
          "name": "",
          "type": "uint256"
        }
      ],
      "stateMutability": "view",
      "type": "function"
    },
    {
      "inputs": [
        {
          "internalType": "uint256",
          "name": "tokenId",
          "type": "uint256"
        }
      ],
      "name": "getApproved",
      "outputs": [
        {
          "internalType": "address",
          "name": "",
          "type": "address"
        }
      ],
      "stateMutability": "view",
      "type": "function"
    },
    {
      "inputs": [
        {
          "internalType": "uint256",
          "name": "moddedRng",
          "type": "uint256"
        }
      ],
      "name": "getBreedFromModdedRng",
      "outputs": [
        {
          "internalType": "enum RandomIpfsNft.Breed",
          "name": "",
          "type": "uint8"
        }
      ],
      "stateMutability": "pure",
      "type": "function"
    },
    {
      "inputs": [],
      "name": "getChanceArray",
      "outputs": [
        {
          "internalType": "uint256[3]",
          "name": "",
          "type": "uint256[3]"
        }
      ],
      "stateMutability": "pure",
      "type": "function"
    },
    {
      "inputs": [
        {
          "internalType": "uint256",
          "name": "index",
          "type": "uint256"
        }
      ],
      "name": "getDogTokenUris",
      "outputs": [
        {
          "internalType": "string",
          "name": "",
          "type": "string"
        }
      ],
      "stateMutability": "view",
      "type": "function"
    },
    {
      "inputs": [],
      "name": "getInitialized",
      "outputs": [
        {
          "internalType": "bool",
          "name": "",
          "type": "bool"
        }
      ],
      "stateMutability": "view",
      "type": "function"
    },
    {
      "inputs": [],
      "name": "getMintFee",
      "outputs": [
        {
          "internalType": "uint256",
          "name": "",
          "type": "uint256"
        }
      ],
      "stateMutability": "view",
      "type": "function"
    },
    {
      "inputs": [],
      "name": "getTokenCounter",
      "outputs": [
        {
          "internalType": "uint256",
          "name": "",
          "type": "uint256"
        }
      ],
      "stateMutability": "view",
      "type": "function"
    },
    {
      "inputs": [
        {
          "internalType": "address",
          "name": "owner",
          "type": "address"
        },
        {
          "internalType": "address",
          "name": "operator",
          "type": "address"
        }
      ],
      "name": "isApprovedForAll",
      "outputs": [
        {
          "internalType": "bool",
          "name": "",
          "type": "bool"
        }
      ],
      "stateMutability": "view",
      "type": "function"
    },
    {
      "inputs": [],
      "name": "name",
      "outputs": [
        {
          "internalType": "string",
          "name": "",
          "type": "string"
        }
      ],
      "stateMutability": "view",
      "type": "function"
    },
    {
      "inputs": [],
      "name": "owner",
      "outputs": [
        {
          "internalType": "address",
          "name": "",
          "type": "address"
        }
      ],
      "stateMutability": "view",
      "type": "function"
    },
    {
      "inputs": [
        {
          "internalType": "uint256",
          "name": "tokenId",
          "type": "uint256"
        }
      ],
      "name": "ownerOf",
      "outputs": [
        {
          "internalType": "address",
          "name": "",
          "type": "address"
        }
      ],
      "stateMutability": "view",
      "type": "function"
    },
    {
      "inputs": [
        {
          "internalType": "uint256",
          "name": "requestId",
          "type": "uint256"
        },
        {
          "internalType": "uint256[]",
          "name": "randomWords",
          "type": "uint256[]"
        }
      ],
      "name": "rawFulfillRandomWords",
      "outputs": [],
      "stateMutability": "nonpayable",
      "type": "function"
    },
    {
      "inputs": [],
      "name": "renounceOwnership",
      "outputs": [],
      "stateMutability": "nonpayable",
      "type": "function"
    },
    {
      "inputs": [],
      "name": "requestNft",
      "outputs": [
        {
          "internalType": "uint256",
          "name": "requestId",
          "type": "uint256"
        }
      ],
      "stateMutability": "payable",
      "type": "function"
    },
    {
      "inputs": [
        {
          "internalType": "uint256",
          "name": "",
          "type": "uint256"
        }
      ],
      "name": "s_requestIdToSender",
      "outputs": [
        {
          "internalType": "address",
          "name": "",
          "type": "address"
        }
      ],
      "stateMutability": "view",
      "type": "function"
    },
    {
      "inputs": [
        {
          "internalType": "address",
          "name": "from",
          "type": "address"
        },
        {
          "internalType": "address",
          "name": "to",
          "type": "address"
        },
        {
          "internalType": "uint256",
          "name": "tokenId",
          "type": "uint256"
        }
      ],
      "name": "safeTransferFrom",
      "outputs": [],
      "stateMutability": "nonpayable",
      "type": "function"
    },
    {
      "inputs": [
        {
          "internalType": "address",
          "name": "from",
          "type": "address"
        },
        {
          "internalType": "address",
          "name": "to",
          "type": "address"
        },
        {
          "internalType": "uint256",
          "name": "tokenId",
          "type": "uint256"
        },
        {
          "internalType": "bytes",
          "name": "data",
          "type": "bytes"
        }
      ],
      "name": "safeTransferFrom",
      "outputs": [],
      "stateMutability": "nonpayable",
      "type": "function"
    },
    {
      "inputs": [
        {
          "internalType": "address",
          "name": "operator",
          "type": "address"
        },
        {
          "internalType": "bool",
          "name": "approved",
          "type": "bool"
        }
      ],
      "name": "setApprovalForAll",
      "outputs": [],
      "stateMutability": "nonpayable",
      "type": "function"
    },
    {
      "inputs": [
        {
          "internalType": "bytes4",
          "name": "interfaceId",
          "type": "bytes4"
        }
      ],
      "name": "supportsInterface",
      "outputs": [
        {
          "internalType": "bool",
          "name": "",
          "type": "bool"
        }
      ],
      "stateMutability": "view",
      "type": "function"
    },
    {
      "inputs": [],
      "name": "symbol",
      "outputs": [
        {
          "internalType": "string",
          "name": "",
          "type": "string"
        }
      ],
      "stateMutability": "view",
      "type": "function"
    },
    {
      "inputs": [
        {
          "internalType": "uint256",
          "name": "tokenId",
          "type": "uint256"
        }
      ],
      "name": "tokenURI",
      "outputs": [
        {
          "internalType": "string",
          "name": "",
          "type": "string"
        }
      ],
      "stateMutability": "view",
      "type": "function"
    },
    {
      "inputs": [
        {
          "internalType": "address",
          "name": "from",
          "type": "address"
        },
        {
          "internalType": "address",
          "name": "to",
          "type": "address"
        },
        {
          "internalType": "uint256",
          "name": "tokenId",
          "type": "uint256"
        }
      ],
      "name": "transferFrom",
      "outputs": [],
      "stateMutability": "nonpayable",
      "type": "function"
    },
    {
      "inputs": [
        {
          "internalType": "address",
          "name": "newOwner",
          "type": "address"
        }
      ],
      "name": "transferOwnership",
      "outputs": [],
      "stateMutability": "nonpayable",
      "type": "function"
    },
    {
      "inputs": [],
      "name": "withdraw",
      "outputs": [],
      "stateMutability": "nonpayable",
      "type": "function"
    }
  ],
  "bytecode": "0x6101406040523480156200001257600080fd5b5060405162005a9938038062005a99833981810160405281019062000038919062000ce5565b856040518060400160405280600f81526020017f52616e646f6d2049504653204e465400000000000000000000000000000000008152506040518060400160405280600381526020017f52494e00000000000000000000000000000000000000000000000000000000008152508160009081620000b6919062000fe1565b508060019081620000c8919062000fe1565b5050508073ffffffffffffffffffffffffffffffffffffffff1660808173ffffffffffffffffffffffffffffffffffffffff1681525050506200012062000114620004c760201b60201c565b620004cf60201b60201c565b620001547fab3f9beafea0ea984337e44d76d82f089173790344c3f562b9d6ad9f0b14d08d60001b6200059560201b60201c565b620001887f431ffdbd475caa2e02d941919c417b3156509ff8060936900a725e63e5b6ad0260001b6200059560201b60201c565b620001bc7ff98ddd0dcfb22c3c70aca86550692323841b7a82be3dfb7913c40f3d39a456bf60001b6200059560201b60201c565b8573ffffffffffffffffffffffffffffffffffffffff1660a08173ffffffffffffffffffffffffffffffffffffffff1681525050620002247fe9a01e2962bec87b8a51259a46f1db29d7f40b2f6da34603fc37fc5f01c4db4860001b6200059560201b60201c565b620002587fc91c31e32e17d1bb7e6da4ff6cd6f7af7714e5e83cfc80bdf3eaf2ee4def284460001b6200059560201b60201c565b8360e08181525050620002947f9cd951baef8c11ae75c635030b3b51a2598a82308d6c648f27ed9b32cccf85a860001b6200059560201b60201c565b620002c87f8c01f2a8c8ce840e37efe61f7682255195e5cc8be0eec607b63806db532ddcab60001b6200059560201b60201c565b8467ffffffffffffffff1660c08167ffffffffffffffff1681525050620003187fd3b20aa7edc42c1b32171c2c850a78fe56dbae6b254c612eb97ec7ac66e2220660001b6200059560201b60201c565b6200034c7f4145ca9b7c12dc4317df898168547a4fcd43820ffd01e107f9e6b31f4813849560001b6200059560201b60201c565b826101208181525050620003897f515f11887fd39dc15b41390331c5000dfb1b48637e065ddd3d3852cc661095bd60001b6200059560201b60201c565b620003bd7fe88977bd6367e162bdec0a2a73f60b4545e7eece9b2ed5054d3580a6a554280360001b6200059560201b60201c565b8163ffffffff166101008163ffffffff1681525050620004067f0ece3e16d24031420452ea2c26b93dc157798d5b61b7b40afebb5e03cfaab7bb60001b6200059560201b60201c565b6200043a7f14647e4516d160b43d37ed5ba950c6fa52b449a104d807b156b64aea1ef6db2260001b6200059560201b60201c565b6200044b816200059860201b60201c565b6200047f7f6c711dd129f127d9c0db9af7c6a73eb24e45dffcf1bf3b06ee3bb0f382a29bf260001b6200059560201b60201c565b620004b37f49d5b47365d801384941a09e427df33adf20626381d2ca20998882c01dc6895960001b6200059560201b60201c565b6000600881905550505050505050620010c8565b600033905090565b6000600760009054906101000a900473ffffffffffffffffffffffffffffffffffffffff16905081600760006101000a81548173ffffffffffffffffffffffffffffffffffffffff021916908373ffffffffffffffffffffffffffffffffffffffff1602179055508173ffffffffffffffffffffffffffffffffffffffff168173ffffffffffffffffffffffffffffffffffffffff167f8be0079c531659141344cd1fd0a4f28419497f9722a3daafe3b4186f6b6457e060405160405180910390a35050565b50565b620005cc7f306eb9675fa0ea9ecd264c29c8675a956be27c19d3349ac899c533efab45921060001b6200059560201b60201c565b620006007f3017cd8155b44155f2af26ea72f59105cc59187a23e61a26c269581de987dc0260001b6200059560201b60201c565b620006347fac348e737692b86c02eee28451438574e84ec8ab3cac5ad7a0275e6994b8538a60001b6200059560201b60201c565b600a60009054906101000a900460ff1615620006e4576200067e7f4daf712dd95fb254494ca95ebd3a86525708cf8b71ba94806fd6be59e3988c7260001b6200059560201b60201c565b620006b27f767b7d1d1edcdd901d45c712dfba310af7d2ed646d8d6d25da6b7cad1d921d0d60001b6200059560201b60201c565b6040517fddf8bf7000000000000000000000000000000000000000000000000000000000815260040160405180910390fd5b620007187f6f41897d826f7bcdbb470543698ac94a76f50da18009d0ab7a2c034195d4860560001b6200059560201b60201c565b6200074c7f2683eeda603e11a9eb77c9ca4184162de5287eee34536895365f5cc2b0a3feaa60001b6200059560201b60201c565b620007807fa5c950a64d0b45a8ba60654ae85df292f62e473814393e0f4694f9d7aeca362160001b6200059560201b60201c565b806009906003620007939291906200081a565b50620007c87fb401b9ab4f0fe57e9a30efbc1f27a5a1011cf74784683f8dc3c2066b9d68d46360001b6200059560201b60201c565b620007fc7fdd0430c692f3c29413297c3d69e95f5a91e28fd9d3c5edc4c30d6a83e4970e7060001b6200059560201b60201c565b6001600a60006101000a81548160ff02191690831515021790555050565b82805482825590600052602060002090810192821562000867579160200282015b828111156200086657825182908162000855919062000fe1565b50916020019190600101906200083b565b5b5090506200087691906200087a565b5090565b5b808211156200089e5760008181620008949190620008a2565b506001016200087b565b5090565b508054620008b09062000dda565b6000825580601f10620008c45750620008e5565b601f016020900490600052602060002090810190620008e49190620008e8565b5b50565b5b8082111562000903576000816000905550600101620008e9565b5090565b6000604051905090565b600080fd5b600080fd5b600073ffffffffffffffffffffffffffffffffffffffff82169050919050565b600062000948826200091b565b9050919050565b6200095a816200093b565b81146200096657600080fd5b50565b6000815190506200097a816200094f565b92915050565b600067ffffffffffffffff82169050919050565b6200099f8162000980565b8114620009ab57600080fd5b50565b600081519050620009bf8162000994565b92915050565b6000819050919050565b620009da81620009c5565b8114620009e657600080fd5b50565b600081519050620009fa81620009cf565b92915050565b6000819050919050565b62000a158162000a00565b811462000a2157600080fd5b50565b60008151905062000a358162000a0a565b92915050565b600063ffffffff82169050919050565b62000a568162000a3b565b811462000a6257600080fd5b50565b60008151905062000a768162000a4b565b92915050565b600080fd5b6000601f19601f8301169050919050565b7f4e487b7100000000000000000000000000000000000000000000000000000000600052604160045260246000fd5b62000acc8262000a81565b810181811067ffffffffffffffff8211171562000aee5762000aed62000a92565b5b80604052505050565b600062000b0362000907565b905062000b11828262000ac1565b919050565b600067ffffffffffffffff82111562000b345762000b3362000a92565b5b602082029050919050565b600080fd5b600080fd5b600067ffffffffffffffff82111562000b675762000b6662000a92565b5b62000b728262000a81565b9050602081019050919050565b60005b8381101562000b9f57808201518184015260208101905062000b82565b60008484015250505050565b600062000bc262000bbc8462000b49565b62000af7565b90508281526020810184848401111562000be15762000be062000b44565b5b62000bee84828562000b7f565b509392505050565b600082601f83011262000c0e5762000c0d62000a7c565b5b815162000c2084826020860162000bab565b91505092915050565b600062000c4062000c3a8462000b16565b62000af7565b9050806020840283018581111562000c5d5762000c5c62000b3f565b5b835b8181101562000cab57805167ffffffffffffffff81111562000c865762000c8562000a7c565b5b80860162000c95898262000bf6565b8552602085019450505060208101905062000c5f565b5050509392505050565b600082601f83011262000ccd5762000ccc62000a7c565b5b600362000cdc84828562000c29565b91505092915050565b60008060008060008060c0878903121562000d055762000d0462000911565b5b600062000d1589828a0162000969565b965050602062000d2889828a01620009ae565b955050604062000d3b89828a01620009e9565b945050606062000d4e89828a0162000a24565b935050608062000d6189828a0162000a65565b92505060a087015167ffffffffffffffff81111562000d855762000d8462000916565b5b62000d9389828a0162000cb5565b9150509295509295509295565b600081519050919050565b7f4e487b7100000000000000000000000000000000000000000000000000000000600052602260045260246000fd5b6000600282049050600182168062000df357607f821691505b60208210810362000e095762000e0862000dab565b5b50919050565b60008190508160005260206000209050919050565b60006020601f8301049050919050565b600082821b905092915050565b60006008830262000e737fffffffffffffffffffffffffffffffffffffffffffffffffffffffffffffffff8262000e34565b62000e7f868362000e34565b95508019841693508086168417925050509392505050565b6000819050919050565b600062000ec262000ebc62000eb68462000a00565b62000e97565b62000a00565b9050919050565b6000819050919050565b62000ede8362000ea1565b62000ef662000eed8262000ec9565b84845462000e41565b825550505050565b600090565b62000f0d62000efe565b62000f1a81848462000ed3565b505050565b5b8181101562000f425762000f3660008262000f03565b60018101905062000f20565b5050565b601f82111562000f915762000f5b8162000e0f565b62000f668462000e24565b8101602085101562000f76578190505b62000f8e62000f858562000e24565b83018262000f1f565b50505b505050565b600082821c905092915050565b600062000fb66000198460080262000f96565b1980831691505092915050565b600062000fd1838362000fa3565b9150826002028217905092915050565b62000fec8262000da0565b67ffffffffffffffff81111562001008576200100762000a92565b5b62001014825462000dda565b6200102182828562000f46565b600060209050601f83116001811462001059576000841562001044578287015190505b62001050858262000fc3565b865550620010c0565b601f198416620010698662000e0f565b60005b8281101562001093578489015182556001820191506020850194506020810190506200106c565b86831015620010b35784890151620010af601f89168262000fa3565b8355505b6001600288020188555050505b505050505050565b60805160a05160c05160e0516101005161012051614973620011266000396000818161110a0152611644015260006117fa015260006117b6015260006117d70152600061177a015260008181610916015261096a01526149736000f3fe6080604052600436106101815760003560e01c8063715018a6116100d1578063a51cccf31161008a578063c87b56dd11610064578063c87b56dd14610575578063e985e9c5146105b2578063ee89dab4146105ef578063f2fde38b1461061a57610181565b8063a51cccf3146104f1578063aa1524911461052e578063b88d4fde1461054c57610181565b8063715018a6146103f35780637a5caab31461040a5780638da5cb5b1461043557806395d89b4114610460578063a22cb4651461048b578063a36f573b146104b457610181565b80633af259751161013e5780635dacf5f4116101185780635dacf5f4146103235780636352211e1461034e5780636e02007d1461038b57806370a08231146103b657610181565b80633af25975146102a65780633ccfd60b146102e357806342842e0e146102fa57610181565b806301ffc9a71461018657806306fdde03146101c3578063081812fc146101ee578063095ea7b31461022b5780631fe543e31461025457806323b872dd1461027d575b600080fd5b34801561019257600080fd5b506101ad60048036038101906101a89190613301565b610643565b6040516101ba9190613349565b60405180910390f35b3480156101cf57600080fd5b506101d8610725565b6040516101e591906133f4565b60405180910390f35b3480156101fa57600080fd5b506102156004803603810190610210919061344c565b6107b7565b60405161022291906134ba565b60405180910390f35b34801561023757600080fd5b50610252600480360381019061024d9190613501565b6107fd565b005b34801561026057600080fd5b5061027b60048036038101906102769190613689565b610914565b005b34801561028957600080fd5b506102a4600480360381019061029f91906136e5565b6109d4565b005b3480156102b257600080fd5b506102cd60048036038101906102c8919061344c565b610a34565b6040516102da91906133f4565b60405180910390f35b3480156102ef57600080fd5b506102f8610b68565b005b34801561030657600080fd5b50610321600480360381019061031c91906136e5565b610dd4565b005b34801561032f57600080fd5b50610338610df4565b60405161034591906137e3565b60405180910390f35b34801561035a57600080fd5b506103756004803603810190610370919061344c565b610ea3565b60405161038291906134ba565b60405180910390f35b34801561039757600080fd5b506103a0610f29565b6040516103ad919061380d565b60405180910390f35b3480156103c257600080fd5b506103dd60048036038101906103d89190613828565b610fb7565b6040516103ea919061380d565b60405180910390f35b3480156103ff57600080fd5b5061040861106e565b005b34801561041657600080fd5b5061041f611082565b60405161042c919061380d565b60405180910390f35b34801561044157600080fd5b5061044a61112e565b60405161045791906134ba565b60405180910390f35b34801561046c57600080fd5b50610475611158565b60405161048291906133f4565b60405180910390f35b34801561049757600080fd5b506104b260048036038101906104ad9190613881565b6111ea565b005b3480156104c057600080fd5b506104db60048036038101906104d6919061344c565b611200565b6040516104e891906134ba565b60405180910390f35b3480156104fd57600080fd5b506105186004803603810190610513919061344c565b611233565b6040516105259190613938565b60405180910390f35b6105366115bc565b604051610543919061380d565b60405180910390f35b34801561055857600080fd5b50610573600480360381019061056e9190613a08565b6119bd565b005b34801561058157600080fd5b5061059c6004803603810190610597919061344c565b611a1f565b6040516105a991906133f4565b60405180910390f35b3480156105be57600080fd5b506105d960048036038101906105d49190613a8b565b611b31565b6040516105e69190613349565b60405180910390f35b3480156105fb57600080fd5b50610604611bc5565b6040516106119190613349565b60405180910390f35b34801561062657600080fd5b50610641600480360381019061063c9190613828565b611c60565b005b60007f80ac58cd000000000000000000000000000000000000000000000000000000007bffffffffffffffffffffffffffffffffffffffffffffffffffffffff1916827bffffffffffffffffffffffffffffffffffffffffffffffffffffffff1916148061070e57507f5b5e139f000000000000000000000000000000000000000000000000000000007bffffffffffffffffffffffffffffffffffffffffffffffffffffffff1916827bffffffffffffffffffffffffffffffffffffffffffffffffffffffff1916145b8061071e575061071d82611ce3565b5b9050919050565b60606000805461073490613afa565b80601f016020809104026020016040519081016040528092919081815260200182805461076090613afa565b80156107ad5780601f10610782576101008083540402835291602001916107ad565b820191906000526020600020905b81548152906001019060200180831161079057829003601f168201915b5050505050905090565b60006107c282611d4d565b6004600083815260200190815260200160002060009054906101000a900473ffffffffffffffffffffffffffffffffffffffff169050919050565b600061080882610ea3565b90508073ffffffffffffffffffffffffffffffffffffffff168373ffffffffffffffffffffffffffffffffffffffff1603610878576040517f08c379a000000000000000000000000000000000000000000000000000000000815260040161086f90613b9d565b60405180910390fd5b8073ffffffffffffffffffffffffffffffffffffffff16610897611d98565b73ffffffffffffffffffffffffffffffffffffffff1614806108c657506108c5816108c0611d98565b611b31565b5b610905576040517f08c379a00000000000000000000000000000000000000000000000000000000081526004016108fc90613c2f565b60405180910390fd5b61090f8383611da0565b505050565b7f000000000000000000000000000000000000000000000000000000000000000073ffffffffffffffffffffffffffffffffffffffff163373ffffffffffffffffffffffffffffffffffffffff16146109c657337f00000000000000000000000000000000000000000000000000000000000000006040517f1cf993f40000000000000000000000000000000000000000000000000000000081526004016109bd929190613c4f565b60405180910390fd5b6109d08282611e59565b5050565b6109e56109df611d98565b826122df565b610a24576040517f08c379a0000000000000000000000000000000000000000000000000000000008152600401610a1b90613cea565b60405180910390fd5b610a2f838383612374565b505050565b6060610a627ffb920d5d18b61b915bd7512aeed6f311676e8c4a9734112967ad3276e0bf147860001b61266d565b610a8e7ff85ae339ea233896b6213386af7230d17624c373e54d56dbf40adf747683cb0160001b61266d565b610aba7fcbbd1efd3d9924e1abf54a9137b6c954190a8b195b655020cd942ed94c685a6c60001b61266d565b60098281548110610ace57610acd613d0a565b5b906000526020600020018054610ae390613afa565b80601f0160208091040260200160405190810160405280929190818152602001828054610b0f90613afa565b8015610b5c5780601f10610b3157610100808354040283529160200191610b5c565b820191906000526020600020905b815481529060010190602001808311610b3f57829003601f168201915b50505050509050919050565b610b70612670565b610b9c7f6b6b060c0586cb3039ef8db6f454e820aecb1a0905c2bfdcd238269de558778560001b61266d565b610bc87fcf5a2cf0f228653d181b8d1f86d4323bffdef0ca1a795f28d0365afc7b1cb5fb60001b61266d565b610bf47fc250c35ab648721d13378dda4596b416f544d0086155ec0b7c8e3824b5d561e060001b61266d565b6000479050610c257f8a48e9e01fc3c0f983925fa93101e6b09b9c7e5fc79df19d8df116112b9ac3eb60001b61266d565b610c517f982c5dcebea7bb12ee9dfc09796b5509b6c62b2cde8c3694681e1d5752cc2e4c60001b61266d565b60003373ffffffffffffffffffffffffffffffffffffffff1682604051610c7790613d6a565b60006040518083038185875af1925050503d8060008114610cb4576040519150601f19603f3d011682016040523d82523d6000602084013e610cb9565b606091505b50509050610ce97f935f0080d797e1cd7b62476ec3eab62a168b6652e83cfcee178f127e9dea8ade60001b61266d565b610d157f85e769b4390a091f4fc93f067958e4085049b4bad9c76249068079e2ad8c5d5360001b61266d565b80610da457610d467f6fe796377e2bbc0ba386d97d48014f57d8036873896365e7b6a563acbb6908b160001b61266d565b610d727fd0bfa6c47e7c5bf356a12b0fd8285350b5c9437678fde31d6640d574caf0600960001b61266d565b6040517fca7e25b700000000000000000000000000000000000000000000000000000000815260040160405180910390fd5b610dd07f723509ee1f16503de7403a13f85e56a48301d61c10f5acf3c8e31e77c0070b6f60001b61266d565b5050565b610def838383604051806020016040528060008152506119bd565b505050565b610dfc613273565b610e287f5ae4f3bb58a1f6b96b43a0c27a174968a1c0f37d3489da9be2c3e97f94f1204860001b61266d565b610e547f09f6916ba85733b35143eecb3754906d525f6f39066043a43b311429935c8db960001b61266d565b610e807fce5a4edabe4726aafd52f9128f8c15a8b949410d1b7744193d87d2220ffbfebb60001b61266d565b6040518060600160405280600a8152602001602881526020016064815250905090565b600080610eaf836126ee565b9050600073ffffffffffffffffffffffffffffffffffffffff168173ffffffffffffffffffffffffffffffffffffffff1603610f20576040517f08c379a0000000000000000000000000000000000000000000000000000000008152600401610f1790613dcb565b60405180910390fd5b80915050919050565b6000610f577f0338e4b3dccfa492abaa4aa04ec302a866d44068d36f0a19ad304decf24cf63c60001b61266d565b610f837ffb4f56332fb44d923270fe3f846b10bb9ac35bb100111608ea8cc1bace98102060001b61266d565b610faf7f3dc61abc445852ab560ff400dc47efbbcfc1edaa8bacfbb748a0982abf65982c60001b61266d565b600854905090565b60008073ffffffffffffffffffffffffffffffffffffffff168273ffffffffffffffffffffffffffffffffffffffff1603611027576040517f08c379a000000000000000000000000000000000000000000000000000000000815260040161101e90613e5d565b60405180910390fd5b600360008373ffffffffffffffffffffffffffffffffffffffff1673ffffffffffffffffffffffffffffffffffffffff168152602001908152602001600020549050919050565b611076612670565b611080600061272b565b565b60006110b07f0f43986e97bc09a5290e2dd75f47eb98fa59e84b56c7f37bf09cc4235dddf20c60001b61266d565b6110dc7f4fa28e899c09fa6162ad7c119db4dae52c88b5526116b227381aacd2a3218c7460001b61266d565b6111087fe93556ef56d71f81e36ee473619ebeef936666a491f2cb7ffba113ae39f8664260001b61266d565b7f0000000000000000000000000000000000000000000000000000000000000000905090565b6000600760009054906101000a900473ffffffffffffffffffffffffffffffffffffffff16905090565b60606001805461116790613afa565b80601f016020809104026020016040519081016040528092919081815260200182805461119390613afa565b80156111e05780601f106111b5576101008083540402835291602001916111e0565b820191906000526020600020905b8154815290600101906020018083116111c357829003601f168201915b5050505050905090565b6111fc6111f5611d98565b83836127f1565b5050565b600b6020528060005260406000206000915054906101000a900473ffffffffffffffffffffffffffffffffffffffff1681565b60006112617f02989aa7f5710f86c86603285a6c89be7c95b60147066d88056c68a2f4ceffa860001b61266d565b61128d7f1b4c3fb4aa3a42c2ce28ad1c7082de289c4f76707ff506e6fc0e7340226fd12d60001b61266d565b6112b97faf027d84c1b479827824a252c5a33db81ffb1a574d1be4e6c81112da720bf3ab60001b61266d565b60006112e77fa67be0c004b00d8dce1394dcf70ccbffc7e0814fe4f58c9846f37ae14e73fe0260001b61266d565b6113137fa6f4ece50e80ce523d2fc1173c1747b6e2822e4da912dd3221bbea248fc1cab360001b61266d565b600061131d610df4565b905061134b7fa87ac8e65f8c7ae0c18f952f8ed7b9b3f463d6d6e41295dac40c2739de22708c60001b61266d565b6113777f2c1e68c1f6fbecf72bce01734dddd96cb3cbdfd25d574263bc024479c9407d8c60001b61266d565b60005b6003811015611558576113af7ff2324a44ee0cc7f02534cc6f1c651d8f3d3ff9b0ab0517e985ab08a927e845f260001b61266d565b6113db7fc3d247fa5bcd10660178d032b38c930d11de8db552ca0ea887c5dd6f7ffe221b60001b61266d565b82851015801561140157508181600381106113f9576113f8613d0a565b5b602002015185105b156114a7576114327fcdd15d27f8072f2d2c2d5e76e6af809dd844a3d09806346ec11cd2a7b18a852d60001b61266d565b61145e7f2e4f978819762621ad13abe8f908980a251b2f103af0a8435ae06dfeb214f56260001b61266d565b61148a7fe84ee63aa7bcea4de7ac5454b3298abebfda4c61518c48ed8614782a67a58d1660001b61266d565b80600281111561149d5761149c6138c1565b5b93505050506115b7565b6114d37fcf8afe46fd954009fc3dd9fbcfa5609c1b525373919896f06fe559c679dd61fe60001b61266d565b6114ff7fa558bf4827d5f448727b7f4de7a757f0939201252e9d25d8f0fe54d649896ab860001b61266d565b61152b7f25db65951ee429d7b9ba3bffdbdbd4b9c294725c965488ec4bac749c9919620e60001b61266d565b81816003811061153e5761153d613d0a565b5b60200201519250808061155090613eac565b91505061137a565b506115857f8aa3d5de042222e5090b773af0df6e20039827b891d2f571d0bc863bf472e67660001b61266d565b6040517f12806c9d00000000000000000000000000000000000000000000000000000000815260040160405180910390fd5b919050565b60006115ea7f6117f3d9f21f8a28584e854b759b9935976ac96b47ae0274a0bd416fb17bc7b960001b61266d565b6116167f7d9445f990b20b0713a550b2a2ed80316886f6f7f9dfcec69d8ab087ec357f6160001b61266d565b6116427fb167de86899da02f7ef29cb1b973c779d66ca45efdff0954843053c44fc4b67960001b61266d565b7f00000000000000000000000000000000000000000000000000000000000000003410156116f4576116967f43eaf2edb670d190cc26b2f7947eb7c439ee10e9c95151a5a32d943d2b672a7060001b61266d565b6116c27f9878476dd35f0846c732ed1cd9f395569eeb07421bc5c42640b33a028cd7cc3460001b61266d565b6040517fb90f491000000000000000000000000000000000000000000000000000000000815260040160405180910390fd5b6117207fd88d57ecc2d8c753069bed311abfc752d2f689625d2b4de022b0ebbc64d0bbde60001b61266d565b61174c7f9bfbb48a54b8a5998d76ba5cec45846f53cab4022be12ca9c5db329256052b7b60001b61266d565b6117787f18ead820ed5f4f66039a8f231337715f0362caaef6682773d1e59731d7486b6a60001b61266d565b7f000000000000000000000000000000000000000000000000000000000000000073ffffffffffffffffffffffffffffffffffffffff16635d3b1d307f00000000000000000000000000000000000000000000000000000000000000007f000000000000000000000000000000000000000000000000000000000000000060037f000000000000000000000000000000000000000000000000000000000000000060016040518663ffffffff1660e01b815260040161183b959493929190613f6c565b6020604051808303816000875af115801561185a573d6000803e3d6000fd5b505050506040513d601f19601f8201168201806040525081019061187e9190613fd4565b90506118ac7f055bf0e43bceb3c900a183d8ecb44a305e67271166f2cbd841a8918f0fe2f92760001b61266d565b6118d87f37717ef57889731c16cd128b38cc1b51ccdcbd61fca5cea195b3def926aa4fb260001b61266d565b33600b600083815260200190815260200160002060006101000a81548173ffffffffffffffffffffffffffffffffffffffff021916908373ffffffffffffffffffffffffffffffffffffffff1602179055506119567fd2fd900a6fa47139e65b3189682f6ca9d0c36f7666ae3674453aa44fa5d753f360001b61266d565b6119827f24e34254a63f37047d01effbadf809d1e09e920c452797040aabb973c187f90560001b61266d565b807ff873236e6cc0ecc5be1a9a35c95ee5b8d1ac4cc7bfef0cc5060391d6cc98e26b336040516119b291906134ba565b60405180910390a290565b6119ce6119c8611d98565b836122df565b611a0d576040517f08c379a0000000000000000000000000000000000000000000000000000000008152600401611a0490613cea565b60405180910390fd5b611a198484848461295d565b50505050565b6060611a2a82611d4d565b6000600660008481526020019081526020016000208054611a4a90613afa565b80601f0160208091040260200160405190810160405280929190818152602001828054611a7690613afa565b8015611ac35780601f10611a9857610100808354040283529160200191611ac3565b820191906000526020600020905b815481529060010190602001808311611aa657829003601f168201915b505050505090506000611ad46129b9565b90506000815103611ae9578192505050611b2c565b600082511115611b1e578082604051602001611b0692919061403d565b60405160208183030381529060405292505050611b2c565b611b27846129d0565b925050505b919050565b6000600560008473ffffffffffffffffffffffffffffffffffffffff1673ffffffffffffffffffffffffffffffffffffffff16815260200190815260200160002060008373ffffffffffffffffffffffffffffffffffffffff1673ffffffffffffffffffffffffffffffffffffffff16815260200190815260200160002060009054906101000a900460ff16905092915050565b6000611bf37ff96ff315ea4006c9fefb94f7488ee57fdaadb20d98169c8540acac1d2b4cd64760001b61266d565b611c1f7fd2d6349dbc2796a4b50cac68b2831547e93104904882d07a8140ca99c2d30c8460001b61266d565b611c4b7f942479e2bdad4eb47698ebe34e3a8d71cd3f203f372bca6974cfa22df629276c60001b61266d565b600a60009054906101000a900460ff16905090565b611c68612670565b600073ffffffffffffffffffffffffffffffffffffffff168173ffffffffffffffffffffffffffffffffffffffff1603611cd7576040517f08c379a0000000000000000000000000000000000000000000000000000000008152600401611cce906140d3565b60405180910390fd5b611ce08161272b565b50565b60007f01ffc9a7000000000000000000000000000000000000000000000000000000007bffffffffffffffffffffffffffffffffffffffffffffffffffffffff1916827bffffffffffffffffffffffffffffffffffffffffffffffffffffffff1916149050919050565b611d5681612a38565b611d95576040517f08c379a0000000000000000000000000000000000000000000000000000000008152600401611d8c90613dcb565b60405180910390fd5b50565b600033905090565b816004600083815260200190815260200160002060006101000a81548173ffffffffffffffffffffffffffffffffffffffff021916908373ffffffffffffffffffffffffffffffffffffffff160217905550808273ffffffffffffffffffffffffffffffffffffffff16611e1383610ea3565b73ffffffffffffffffffffffffffffffffffffffff167f8c5be1e5ebec7d5bd14f71427d1e84f3dd0314c0f7b2291e5b200ac8c7c3b92560405160405180910390a45050565b611e857fb332c8f6b3a18809b6d6d65bac02ee35142d5ceb7f1b81c147ef1d2bb6a0f76e60001b61266d565b611eb17f5cc00dacd209a7ca8e8c639256ccdaa330246c9199470c547634a764bc12b6a460001b61266d565b611edd7f4cc33ba7c921c7c9acafa0b0840144c2cefb88042e619cd9f1151714b003ebb260001b61266d565b6000600b600084815260200190815260200160002060009054906101000a900473ffffffffffffffffffffffffffffffffffffffff169050611f417f7608691931d1950f94beba919e48493eeeba3f1fcf951a9b083867b2a84489cc60001b61266d565b611f6d7ff9a66049b7c4f6d2d3fa28a769660e7dd00550ab8b96f0ead73e18c72706d47860001b61266d565b60006008549050611fa07fb2356cef0962fb142238470908788a5c2edbb042d10b8c30b7d9f7e177debad460001b61266d565b611fcc7fb8595a3e84a106bd4fe14c60219a313b525104dc261b7131347dd38eaebea21c60001b61266d565b6001600854611fdb91906140f3565b60088190555061200d7f2d8d92244978cfc36abdd0afca3e16052e5991d98c6d823d0f1508b12694dfd360001b61266d565b6120397f660b0fdf58d6af0b60b4e40284bfcb52d350e9b3574d44aea89f97e58466444060001b61266d565b600060648460008151811061205157612050613d0a565b5b60200260200101516120639190614156565b90506120917f227ffe15b6575315f9b610bfc374561df321ced8732da1cb6eeff7cbd5d54d3160001b61266d565b6120bd7f28b7de6f08340b94752f3ddc1ccfc331ea719aef603aa028b79ac07a0aaa350660001b61266d565b60006120c882611233565b90506120f67fdc3f7f8c5075daf66c881232d4db90ea58925991cd05d1d8f5a001961291abac60001b61266d565b6121227f9c1c2c84ac18bfc508ad7ab18b2aa4927bf085baf211e57f62af04b11e2ca03460001b61266d565b61212c8484612a79565b6121587f5c36667e3e95deed4f7a81f380c3209bc67a0895c79071ddbe0471ed9a18580e60001b61266d565b6121847faa3caaab5d6678dbb32ff31412f256314d62d87fb0eb8f136c676effde8e162560001b61266d565b61224683600983600281111561219d5761219c6138c1565b5b815481106121ae576121ad613d0a565b5b9060005260206000200180546121c390613afa565b80601f01602080910402602001604051908101604052809291908181526020018280546121ef90613afa565b801561223c5780601f106122115761010080835404028352916020019161223c565b820191906000526020600020905b81548152906001019060200180831161221f57829003601f168201915b5050505050612a97565b6122727fb37f39cbab97e9f49970f31244f7d98464e939535ac7be68b227c5c788a6f39f60001b61266d565b61229e7fbc57cd81a9951c18c6b434ae767225d56d0a2de78487d4a69a784f7fa691e7a460001b61266d565b7f8a269f26b688e110e9cbd887d163dab35cae678fa353a0292de532c0cac1ecdc81856040516122cf929190614187565b60405180910390a1505050505050565b6000806122eb83610ea3565b90508073ffffffffffffffffffffffffffffffffffffffff168473ffffffffffffffffffffffffffffffffffffffff16148061232d575061232c8185611b31565b5b8061236b57508373ffffffffffffffffffffffffffffffffffffffff16612353846107b7565b73ffffffffffffffffffffffffffffffffffffffff16145b91505092915050565b8273ffffffffffffffffffffffffffffffffffffffff1661239482610ea3565b73ffffffffffffffffffffffffffffffffffffffff16146123ea576040517f08c379a00000000000000000000000000000000000000000000000000000000081526004016123e190614222565b60405180910390fd5b600073ffffffffffffffffffffffffffffffffffffffff168273ffffffffffffffffffffffffffffffffffffffff1603612459576040517f08c379a0000000000000000000000000000000000000000000000000000000008152600401612450906142b4565b60405180910390fd5b6124668383836001612b04565b8273ffffffffffffffffffffffffffffffffffffffff1661248682610ea3565b73ffffffffffffffffffffffffffffffffffffffff16146124dc576040517f08c379a00000000000000000000000000000000000000000000000000000000081526004016124d390614222565b60405180910390fd5b6004600082815260200190815260200160002060006101000a81549073ffffffffffffffffffffffffffffffffffffffff02191690556001600360008573ffffffffffffffffffffffffffffffffffffffff1673ffffffffffffffffffffffffffffffffffffffff168152602001908152602001600020600082825403925050819055506001600360008473ffffffffffffffffffffffffffffffffffffffff1673ffffffffffffffffffffffffffffffffffffffff16815260200190815260200160002060008282540192505081905550816002600083815260200190815260200160002060006101000a81548173ffffffffffffffffffffffffffffffffffffffff021916908373ffffffffffffffffffffffffffffffffffffffff160217905550808273ffffffffffffffffffffffffffffffffffffffff168473ffffffffffffffffffffffffffffffffffffffff167fddf252ad1be2c89b69c2b068fc378daa952ba7f163c4a11628f55a4df523b3ef60405160405180910390a46126688383836001612c2a565b505050565b50565b612678611d98565b73ffffffffffffffffffffffffffffffffffffffff1661269661112e565b73ffffffffffffffffffffffffffffffffffffffff16146126ec576040517f08c379a00000000000000000000000000000000000000000000000000000000081526004016126e390614320565b60405180910390fd5b565b60006002600083815260200190815260200160002060009054906101000a900473ffffffffffffffffffffffffffffffffffffffff169050919050565b6000600760009054906101000a900473ffffffffffffffffffffffffffffffffffffffff16905081600760006101000a81548173ffffffffffffffffffffffffffffffffffffffff021916908373ffffffffffffffffffffffffffffffffffffffff1602179055508173ffffffffffffffffffffffffffffffffffffffff168173ffffffffffffffffffffffffffffffffffffffff167f8be0079c531659141344cd1fd0a4f28419497f9722a3daafe3b4186f6b6457e060405160405180910390a35050565b8173ffffffffffffffffffffffffffffffffffffffff168373ffffffffffffffffffffffffffffffffffffffff160361285f576040517f08c379a00000000000000000000000000000000000000000000000000000000081526004016128569061438c565b60405180910390fd5b80600560008573ffffffffffffffffffffffffffffffffffffffff1673ffffffffffffffffffffffffffffffffffffffff16815260200190815260200160002060008473ffffffffffffffffffffffffffffffffffffffff1673ffffffffffffffffffffffffffffffffffffffff16815260200190815260200160002060006101000a81548160ff0219169083151502179055508173ffffffffffffffffffffffffffffffffffffffff168373ffffffffffffffffffffffffffffffffffffffff167f17307eab39ab6107e8899845ad3d59bd9653f200f220920489ca2b5937696c31836040516129509190613349565b60405180910390a3505050565b612968848484612374565b61297484848484612c30565b6129b3576040517f08c379a00000000000000000000000000000000000000000000000000000000081526004016129aa9061441e565b60405180910390fd5b50505050565b606060405180602001604052806000815250905090565b60606129db82611d4d565b60006129e56129b9565b90506000815111612a055760405180602001604052806000815250612a30565b80612a0f84612db7565b604051602001612a2092919061403d565b6040516020818303038152906040525b915050919050565b60008073ffffffffffffffffffffffffffffffffffffffff16612a5a836126ee565b73ffffffffffffffffffffffffffffffffffffffff1614159050919050565b612a93828260405180602001604052806000815250612e85565b5050565b612aa082612a38565b612adf576040517f08c379a0000000000000000000000000000000000000000000000000000000008152600401612ad6906144b0565b60405180910390fd5b80600660008481526020019081526020016000209081612aff919061467c565b505050565b6001811115612c2457600073ffffffffffffffffffffffffffffffffffffffff168473ffffffffffffffffffffffffffffffffffffffff1614612b985780600360008673ffffffffffffffffffffffffffffffffffffffff1673ffffffffffffffffffffffffffffffffffffffff1681526020019081526020016000206000828254612b90919061474e565b925050819055505b600073ffffffffffffffffffffffffffffffffffffffff168373ffffffffffffffffffffffffffffffffffffffff1614612c235780600360008573ffffffffffffffffffffffffffffffffffffffff1673ffffffffffffffffffffffffffffffffffffffff1681526020019081526020016000206000828254612c1b91906140f3565b925050819055505b5b50505050565b50505050565b6000612c518473ffffffffffffffffffffffffffffffffffffffff16612ee0565b15612daa578373ffffffffffffffffffffffffffffffffffffffff1663150b7a02612c7a611d98565b8786866040518563ffffffff1660e01b8152600401612c9c94939291906147d7565b6020604051808303816000875af1925050508015612cd857506040513d601f19601f82011682018060405250810190612cd59190614838565b60015b612d5a573d8060008114612d08576040519150601f19603f3d011682016040523d82523d6000602084013e612d0d565b606091505b506000815103612d52576040517f08c379a0000000000000000000000000000000000000000000000000000000008152600401612d499061441e565b60405180910390fd5b805181602001fd5b63150b7a0260e01b7bffffffffffffffffffffffffffffffffffffffffffffffffffffffff1916817bffffffffffffffffffffffffffffffffffffffffffffffffffffffff191614915050612daf565b600190505b949350505050565b606060006001612dc684612f03565b01905060008167ffffffffffffffff811115612de557612de4613546565b5b6040519080825280601f01601f191660200182016040528015612e175781602001600182028036833780820191505090505b509050600082602001820190505b600115612e7a578080600190039150507f3031323334353637383961626364656600000000000000000000000000000000600a86061a8153600a8581612e6e57612e6d614127565b5b04945060008503612e25575b819350505050919050565b612e8f8383613056565b612e9c6000848484612c30565b612edb576040517f08c379a0000000000000000000000000000000000000000000000000000000008152600401612ed29061441e565b60405180910390fd5b505050565b6000808273ffffffffffffffffffffffffffffffffffffffff163b119050919050565b600080600090507a184f03e93ff9f4daa797ed6e38ed64bf6a1f0100000000000000008310612f61577a184f03e93ff9f4daa797ed6e38ed64bf6a1f0100000000000000008381612f5757612f56614127565b5b0492506040810190505b6d04ee2d6d415b85acef81000000008310612f9e576d04ee2d6d415b85acef81000000008381612f9457612f93614127565b5b0492506020810190505b662386f26fc100008310612fcd57662386f26fc100008381612fc357612fc2614127565b5b0492506010810190505b6305f5e1008310612ff6576305f5e1008381612fec57612feb614127565b5b0492506008810190505b612710831061301b57612710838161301157613010614127565b5b0492506004810190505b6064831061303e576064838161303457613033614127565b5b0492506002810190505b600a831061304d576001810190505b80915050919050565b600073ffffffffffffffffffffffffffffffffffffffff168273ffffffffffffffffffffffffffffffffffffffff16036130c5576040517f08c379a00000000000000000000000000000000000000000000000000000000081526004016130bc906148b1565b60405180910390fd5b6130ce81612a38565b1561310e576040517f08c379a00000000000000000000000000000000000000000000000000000000081526004016131059061491d565b60405180910390fd5b61311c600083836001612b04565b61312581612a38565b15613165576040517f08c379a000000000000000000000000000000000000000000000000000000000815260040161315c9061491d565b60405180910390fd5b6001600360008473ffffffffffffffffffffffffffffffffffffffff1673ffffffffffffffffffffffffffffffffffffffff16815260200190815260200160002060008282540192505081905550816002600083815260200190815260200160002060006101000a81548173ffffffffffffffffffffffffffffffffffffffff021916908373ffffffffffffffffffffffffffffffffffffffff160217905550808273ffffffffffffffffffffffffffffffffffffffff16600073ffffffffffffffffffffffffffffffffffffffff167fddf252ad1be2c89b69c2b068fc378daa952ba7f163c4a11628f55a4df523b3ef60405160405180910390a461326f600083836001612c2a565b5050565b6040518060600160405280600390602082028036833780820191505090505090565b6000604051905090565b600080fd5b600080fd5b60007fffffffff0000000000000000000000000000000000000000000000000000000082169050919050565b6132de816132a9565b81146132e957600080fd5b50565b6000813590506132fb816132d5565b92915050565b6000602082840312156133175761331661329f565b5b6000613325848285016132ec565b91505092915050565b60008115159050919050565b6133438161332e565b82525050565b600060208201905061335e600083018461333a565b92915050565b600081519050919050565b600082825260208201905092915050565b60005b8381101561339e578082015181840152602081019050613383565b60008484015250505050565b6000601f19601f8301169050919050565b60006133c682613364565b6133d0818561336f565b93506133e0818560208601613380565b6133e9816133aa565b840191505092915050565b6000602082019050818103600083015261340e81846133bb565b905092915050565b6000819050919050565b61342981613416565b811461343457600080fd5b50565b60008135905061344681613420565b92915050565b6000602082840312156134625761346161329f565b5b600061347084828501613437565b91505092915050565b600073ffffffffffffffffffffffffffffffffffffffff82169050919050565b60006134a482613479565b9050919050565b6134b481613499565b82525050565b60006020820190506134cf60008301846134ab565b92915050565b6134de81613499565b81146134e957600080fd5b50565b6000813590506134fb816134d5565b92915050565b600080604083850312156135185761351761329f565b5b6000613526858286016134ec565b925050602061353785828601613437565b9150509250929050565b600080fd5b7f4e487b7100000000000000000000000000000000000000000000000000000000600052604160045260246000fd5b61357e826133aa565b810181811067ffffffffffffffff8211171561359d5761359c613546565b5b80604052505050565b60006135b0613295565b90506135bc8282613575565b919050565b600067ffffffffffffffff8211156135dc576135db613546565b5b602082029050602081019050919050565b600080fd5b6000613605613600846135c1565b6135a6565b90508083825260208201905060208402830185811115613628576136276135ed565b5b835b81811015613651578061363d8882613437565b84526020840193505060208101905061362a565b5050509392505050565b600082601f8301126136705761366f613541565b5b81356136808482602086016135f2565b91505092915050565b600080604083850312156136a05761369f61329f565b5b60006136ae85828601613437565b925050602083013567ffffffffffffffff8111156136cf576136ce6132a4565b5b6136db8582860161365b565b9150509250929050565b6000806000606084860312156136fe576136fd61329f565b5b600061370c868287016134ec565b935050602061371d868287016134ec565b925050604061372e86828701613437565b9150509250925092565b600060039050919050565b600081905092915050565b6000819050919050565b61376181613416565b82525050565b60006137738383613758565b60208301905092915050565b6000602082019050919050565b61379581613738565b61379f8184613743565b92506137aa8261374e565b8060005b838110156137db5781516137c28782613767565b96506137cd8361377f565b9250506001810190506137ae565b505050505050565b60006060820190506137f8600083018461378c565b92915050565b61380781613416565b82525050565b600060208201905061382260008301846137fe565b92915050565b60006020828403121561383e5761383d61329f565b5b600061384c848285016134ec565b91505092915050565b61385e8161332e565b811461386957600080fd5b50565b60008135905061387b81613855565b92915050565b600080604083850312156138985761389761329f565b5b60006138a6858286016134ec565b92505060206138b78582860161386c565b9150509250929050565b7f4e487b7100000000000000000000000000000000000000000000000000000000600052602160045260246000fd5b60038110613901576139006138c1565b5b50565b6000819050613912826138f0565b919050565b600061392282613904565b9050919050565b61393281613917565b82525050565b600060208201905061394d6000830184613929565b92915050565b600080fd5b600067ffffffffffffffff82111561397357613972613546565b5b61397c826133aa565b9050602081019050919050565b82818337600083830152505050565b60006139ab6139a684613958565b6135a6565b9050828152602081018484840111156139c7576139c6613953565b5b6139d2848285613989565b509392505050565b600082601f8301126139ef576139ee613541565b5b81356139ff848260208601613998565b91505092915050565b60008060008060808587031215613a2257613a2161329f565b5b6000613a30878288016134ec565b9450506020613a41878288016134ec565b9350506040613a5287828801613437565b925050606085013567ffffffffffffffff811115613a7357613a726132a4565b5b613a7f878288016139da565b91505092959194509250565b60008060408385031215613aa257613aa161329f565b5b6000613ab0858286016134ec565b9250506020613ac1858286016134ec565b9150509250929050565b7f4e487b7100000000000000000000000000000000000000000000000000000000600052602260045260246000fd5b60006002820490506001821680613b1257607f821691505b602082108103613b2557613b24613acb565b5b50919050565b7f4552433732313a20617070726f76616c20746f2063757272656e74206f776e6560008201527f7200000000000000000000000000000000000000000000000000000000000000602082015250565b6000613b8760218361336f565b9150613b9282613b2b565b604082019050919050565b60006020820190508181036000830152613bb681613b7a565b9050919050565b7f4552433732313a20617070726f76652063616c6c6572206973206e6f7420746f60008201527f6b656e206f776e6572206f7220617070726f76656420666f7220616c6c000000602082015250565b6000613c19603d8361336f565b9150613c2482613bbd565b604082019050919050565b60006020820190508181036000830152613c4881613c0c565b9050919050565b6000604082019050613c6460008301856134ab565b613c7160208301846134ab565b9392505050565b7f4552433732313a2063616c6c6572206973206e6f7420746f6b656e206f776e6560008201527f72206f7220617070726f76656400000000000000000000000000000000000000602082015250565b6000613cd4602d8361336f565b9150613cdf82613c78565b604082019050919050565b60006020820190508181036000830152613d0381613cc7565b9050919050565b7f4e487b7100000000000000000000000000000000000000000000000000000000600052603260045260246000fd5b600081905092915050565b50565b6000613d54600083613d39565b9150613d5f82613d44565b600082019050919050565b6000613d7582613d47565b9150819050919050565b7f4552433732313a20696e76616c696420746f6b656e2049440000000000000000600082015250565b6000613db560188361336f565b9150613dc082613d7f565b602082019050919050565b60006020820190508181036000830152613de481613da8565b9050919050565b7f4552433732313a2061646472657373207a65726f206973206e6f74206120766160008201527f6c6964206f776e65720000000000000000000000000000000000000000000000602082015250565b6000613e4760298361336f565b9150613e5282613deb565b604082019050919050565b60006020820190508181036000830152613e7681613e3a565b9050919050565b7f4e487b7100000000000000000000000000000000000000000000000000000000600052601160045260246000fd5b6000613eb782613416565b91507fffffffffffffffffffffffffffffffffffffffffffffffffffffffffffffffff8203613ee957613ee8613e7d565b5b600182019050919050565b6000819050919050565b613f0781613ef4565b82525050565b600067ffffffffffffffff82169050919050565b613f2a81613f0d565b82525050565b600061ffff82169050919050565b613f4781613f30565b82525050565b600063ffffffff82169050919050565b613f6681613f4d565b82525050565b600060a082019050613f816000830188613efe565b613f8e6020830187613f21565b613f9b6040830186613f3e565b613fa86060830185613f5d565b613fb56080830184613f5d565b9695505050505050565b600081519050613fce81613420565b92915050565b600060208284031215613fea57613fe961329f565b5b6000613ff884828501613fbf565b91505092915050565b600081905092915050565b600061401782613364565b6140218185614001565b9350614031818560208601613380565b80840191505092915050565b6000614049828561400c565b9150614055828461400c565b91508190509392505050565b7f4f776e61626c653a206e6577206f776e657220697320746865207a65726f206160008201527f6464726573730000000000000000000000000000000000000000000000000000602082015250565b60006140bd60268361336f565b91506140c882614061565b604082019050919050565b600060208201905081810360008301526140ec816140b0565b9050919050565b60006140fe82613416565b915061410983613416565b925082820190508082111561412157614120613e7d565b5b92915050565b7f4e487b7100000000000000000000000000000000000000000000000000000000600052601260045260246000fd5b600061416182613416565b915061416c83613416565b92508261417c5761417b614127565b5b828206905092915050565b600060408201905061419c6000830185613929565b6141a960208301846134ab565b9392505050565b7f4552433732313a207472616e736665722066726f6d20696e636f72726563742060008201527f6f776e6572000000000000000000000000000000000000000000000000000000602082015250565b600061420c60258361336f565b9150614217826141b0565b604082019050919050565b6000602082019050818103600083015261423b816141ff565b9050919050565b7f4552433732313a207472616e7366657220746f20746865207a65726f2061646460008201527f7265737300000000000000000000000000000000000000000000000000000000602082015250565b600061429e60248361336f565b91506142a982614242565b604082019050919050565b600060208201905081810360008301526142cd81614291565b9050919050565b7f4f776e61626c653a2063616c6c6572206973206e6f7420746865206f776e6572600082015250565b600061430a60208361336f565b9150614315826142d4565b602082019050919050565b60006020820190508181036000830152614339816142fd565b9050919050565b7f4552433732313a20617070726f766520746f2063616c6c657200000000000000600082015250565b600061437660198361336f565b915061438182614340565b602082019050919050565b600060208201905081810360008301526143a581614369565b9050919050565b7f4552433732313a207472616e7366657220746f206e6f6e20455243373231526560008201527f63656976657220696d706c656d656e7465720000000000000000000000000000602082015250565b600061440860328361336f565b9150614413826143ac565b604082019050919050565b60006020820190508181036000830152614437816143fb565b9050919050565b7f45524337323155524953746f726167653a2055524920736574206f66206e6f6e60008201527f6578697374656e7420746f6b656e000000000000000000000000000000000000602082015250565b600061449a602e8361336f565b91506144a58261443e565b604082019050919050565b600060208201905081810360008301526144c98161448d565b9050919050565b60008190508160005260206000209050919050565b60006020601f8301049050919050565b600082821b905092915050565b6000600883026145327fffffffffffffffffffffffffffffffffffffffffffffffffffffffffffffffff826144f5565b61453c86836144f5565b95508019841693508086168417925050509392505050565b6000819050919050565b600061457961457461456f84613416565b614554565b613416565b9050919050565b6000819050919050565b6145938361455e565b6145a761459f82614580565b848454614502565b825550505050565b600090565b6145bc6145af565b6145c781848461458a565b505050565b5b818110156145eb576145e06000826145b4565b6001810190506145cd565b5050565b601f82111561463057614601816144d0565b61460a846144e5565b81016020851015614619578190505b61462d614625856144e5565b8301826145cc565b50505b505050565b600082821c905092915050565b600061465360001984600802614635565b1980831691505092915050565b600061466c8383614642565b9150826002028217905092915050565b61468582613364565b67ffffffffffffffff81111561469e5761469d613546565b5b6146a88254613afa565b6146b38282856145ef565b600060209050601f8311600181146146e657600084156146d4578287015190505b6146de8582614660565b865550614746565b601f1984166146f4866144d0565b60005b8281101561471c578489015182556001820191506020850194506020810190506146f7565b868310156147395784890151614735601f891682614642565b8355505b6001600288020188555050505b505050505050565b600061475982613416565b915061476483613416565b925082820390508181111561477c5761477b613e7d565b5b92915050565b600081519050919050565b600082825260208201905092915050565b60006147a982614782565b6147b3818561478d565b93506147c3818560208601613380565b6147cc816133aa565b840191505092915050565b60006080820190506147ec60008301876134ab565b6147f960208301866134ab565b61480660408301856137fe565b8181036060830152614818818461479e565b905095945050505050565b600081519050614832816132d5565b92915050565b60006020828403121561484e5761484d61329f565b5b600061485c84828501614823565b91505092915050565b7f4552433732313a206d696e7420746f20746865207a65726f2061646472657373600082015250565b600061489b60208361336f565b91506148a682614865565b602082019050919050565b600060208201905081810360008301526148ca8161488e565b9050919050565b7f4552433732313a20746f6b656e20616c7265616479206d696e74656400000000600082015250565b6000614907601c8361336f565b9150614912826148d1565b602082019050919050565b60006020820190508181036000830152614936816148fa565b905091905056fea2646970667358221220b09e5617a8d00201aa0176f845bd3dbc974d92733f55ea8700fdf2531cc5301c64736f6c63430008110033",
  "linkReferences": {},
  "deployedLinkReferences": {}
}